{
  "_format": "hh-sol-artifact-1",
  "contractName": "AnnaAttestation",
  "sourceName": "contracts/AnnaAttestation.sol",
  "abi": [
    {
      "inputs": [
        {
          "internalType": "address",
          "name": "_identityContract",
          "type": "address"
        }
      ],
      "stateMutability": "nonpayable",
      "type": "constructor"
    },
    {
      "anonymous": false,
      "inputs": [
        {
          "indexed": true,
          "internalType": "bytes32",
          "name": "attestationId",
          "type": "bytes32"
        },
        {
          "indexed": true,
          "internalType": "address",
          "name": "challenger",
          "type": "address"
        },
        {
          "indexed": false,
          "internalType": "string",
          "name": "reason",
          "type": "string"
        }
      ],
      "name": "AttestationChallenged",
      "type": "event"
    },
    {
      "anonymous": false,
      "inputs": [
        {
          "indexed": true,
          "internalType": "bytes32",
          "name": "attestationId",
          "type": "bytes32"
        },
        {
          "indexed": true,
          "internalType": "address",
          "name": "agent",
          "type": "address"
        },
        {
          "indexed": false,
          "internalType": "string",
          "name": "category",
          "type": "string"
        },
        {
          "indexed": false,
          "internalType": "uint256",
          "name": "timestamp",
          "type": "uint256"
        }
      ],
      "name": "AttestationSubmitted",
      "type": "event"
    },
    {
      "anonymous": false,
      "inputs": [
        {
          "indexed": true,
          "internalType": "bytes32",
          "name": "attestationId",
          "type": "bytes32"
        },
        {
          "indexed": true,
          "internalType": "address",
          "name": "verifier",
          "type": "address"
        },
        {
          "indexed": false,
          "internalType": "enum AnnaAttestation.Status",
          "name": "status",
          "type": "uint8"
        },
        {
          "indexed": false,
          "internalType": "uint8",
          "name": "consistencyScore",
          "type": "uint8"
        }
      ],
      "name": "AttestationVerified",
      "type": "event"
    },
    {
      "inputs": [
        {
          "internalType": "address",
          "name": "verifier",
          "type": "address"
        }
      ],
      "name": "addVerifier",
      "outputs": [],
      "stateMutability": "nonpayable",
      "type": "function"
    },
    {
      "inputs": [
        {
          "internalType": "address",
          "name": "",
          "type": "address"
        }
      ],
      "name": "attestationCount",
      "outputs": [
        {
          "internalType": "uint256",
          "name": "",
          "type": "uint256"
        }
      ],
      "stateMutability": "view",
      "type": "function"
    },
    {
      "inputs": [
        {
          "internalType": "bytes32",
          "name": "",
          "type": "bytes32"
        }
      ],
      "name": "attestations",
      "outputs": [
        {
          "internalType": "bytes32",
          "name": "contentHash",
          "type": "bytes32"
        },
        {
          "internalType": "bytes32",
          "name": "reasoningHash",
          "type": "bytes32"
        },
        {
          "internalType": "address",
          "name": "agent",
          "type": "address"
        },
        {
          "internalType": "string",
          "name": "modelVersion",
          "type": "string"
        },
        {
          "internalType": "uint256",
          "name": "timestamp",
          "type": "uint256"
        },
        {
          "internalType": "enum AnnaAttestation.Status",
          "name": "status",
          "type": "uint8"
        },
        {
          "internalType": "uint8",
          "name": "consistencyScore",
          "type": "uint8"
        },
        {
          "internalType": "address",
          "name": "verifier",
          "type": "address"
        },
        {
          "internalType": "uint256",
          "name": "verificationTime",
          "type": "uint256"
        },
        {
          "internalType": "string",
          "name": "category",
          "type": "string"
        }
      ],
      "stateMutability": "view",
      "type": "function"
    },
    {
      "inputs": [
        {
          "internalType": "address",
          "name": "",
          "type": "address"
        }
      ],
      "name": "authorizedVerifiers",
      "outputs": [
        {
          "internalType": "bool",
          "name": "",
          "type": "bool"
        }
      ],
      "stateMutability": "view",
      "type": "function"
    },
    {
      "inputs": [
        {
          "internalType": "bytes32",
          "name": "attestationId",
          "type": "bytes32"
        },
        {
          "internalType": "string",
          "name": "reason",
          "type": "string"
        }
      ],
      "name": "challengeAttestation",
      "outputs": [],
      "stateMutability": "nonpayable",
      "type": "function"
    },
    {
      "inputs": [
        {
          "internalType": "bytes32",
          "name": "attestationId",
          "type": "bytes32"
        }
      ],
      "name": "getAttestation",
      "outputs": [
        {
          "components": [
            {
              "internalType": "bytes32",
              "name": "contentHash",
              "type": "bytes32"
            },
            {
              "internalType": "bytes32",
              "name": "reasoningHash",
              "type": "bytes32"
            },
            {
              "internalType": "address",
              "name": "agent",
              "type": "address"
            },
            {
              "internalType": "string",
              "name": "modelVersion",
              "type": "string"
            },
            {
              "internalType": "uint256",
              "name": "timestamp",
              "type": "uint256"
            },
            {
              "internalType": "enum AnnaAttestation.Status",
              "name": "status",
              "type": "uint8"
            },
            {
              "internalType": "uint8",
              "name": "consistencyScore",
              "type": "uint8"
            },
            {
              "internalType": "address",
              "name": "verifier",
              "type": "address"
            },
            {
              "internalType": "uint256",
              "name": "verificationTime",
              "type": "uint256"
            },
            {
              "internalType": "string",
              "name": "category",
              "type": "string"
            }
          ],
          "internalType": "struct AnnaAttestation.Attestation",
          "name": "",
          "type": "tuple"
        }
      ],
      "stateMutability": "view",
      "type": "function"
    },
    {
      "inputs": [],
      "name": "identityContract",
      "outputs": [
        {
          "internalType": "contract AnnaIdentity",
          "name": "",
          "type": "address"
        }
      ],
      "stateMutability": "view",
      "type": "function"
    },
    {
      "inputs": [
        {
          "internalType": "address",
          "name": "verifier",
          "type": "address"
        }
      ],
      "name": "removeVerifier",
      "outputs": [],
      "stateMutability": "nonpayable",
      "type": "function"
    },
    {
      "inputs": [
        {
          "internalType": "bytes32",
          "name": "contentHash",
          "type": "bytes32"
        },
        {
          "internalType": "bytes32",
          "name": "reasoningHash",
          "type": "bytes32"
        },
        {
          "internalType": "string",
          "name": "modelVersion",
          "type": "string"
        },
        {
          "internalType": "string",
          "name": "category",
          "type": "string"
        }
      ],
      "name": "submitAttestation",
      "outputs": [
        {
          "internalType": "bytes32",
          "name": "",
          "type": "bytes32"
        }
      ],
      "stateMutability": "nonpayable",
      "type": "function"
    },
    {
      "inputs": [
        {
          "internalType": "bytes32",
          "name": "attestationId",
          "type": "bytes32"
        },
        {
          "internalType": "bool",
          "name": "passed",
          "type": "bool"
        },
        {
          "internalType": "uint8",
          "name": "consistencyScore",
          "type": "uint8"
        }
      ],
      "name": "verifyAttestation",
      "outputs": [],
      "stateMutability": "nonpayable",
      "type": "function"
    }
  ],
  "bytecode": "0x60806040523480156200001157600080fd5b5060405162002348380380620023488339818101604052810190620000379190620000e8565b806000806101000a81548173ffffffffffffffffffffffffffffffffffffffff021916908373ffffffffffffffffffffffffffffffffffffffff160217905550506200011a565b600080fd5b600073ffffffffffffffffffffffffffffffffffffffff82169050919050565b6000620000b08262000083565b9050919050565b620000c281620000a3565b8114620000ce57600080fd5b50565b600081519050620000e281620000b7565b92915050565b6000602082840312156200010157620001006200007e565b5b60006200011184828501620000d1565b91505092915050565b61221e806200012a6000396000f3fe608060405234801561001057600080fd5b506004361061009e5760003560e01c80639000b3d6116100665780639000b3d614610159578063940992a3146101755780639a891716146101ae578063a3112a64146101de578063ca2dfd0a1461020e5761009e565b80632d4a850b146100a35780632e74fed2146100bf5780633b2c1322146100ef57806344bb1cbf1461010b57806367031bae1461013b575b600080fd5b6100bd60048036038101906100b891906111f3565b61022a565b005b6100d960048036038101906100d491906112ab565b6104de565b6040516100e69190611361565b60405180910390f35b6101096004803603810190610104919061137c565b610959565b005b6101256004803603810190610120919061143a565b610b01565b6040516101329190611480565b60405180910390f35b610143610b19565b60405161015091906114fa565b60405180910390f35b610173600480360381019061016e919061143a565b610b3d565b005b61018f600480360381019061018a9190611515565b610b98565b6040516101a59a99989796959493929190611667565b60405180910390f35b6101c860048036038101906101c3919061143a565b610d56565b6040516101d59190611720565b60405180910390f35b6101f860048036038101906101f39190611515565b610d76565b60405161020591906118b1565b60405180910390f35b6102286004803603810190610223919061143a565b61104d565b005b600360003373ffffffffffffffffffffffffffffffffffffffff1673ffffffffffffffffffffffffffffffffffffffff16815260200190815260200160002060009054906101000a900460ff166102b6576040517f08c379a00000000000000000000000000000000000000000000000000000000081526004016102ad9061191f565b60405180910390fd5b60648160ff1611156102fd576040517f08c379a00000000000000000000000000000000000000000000000000000000081526004016102f49061198b565b60405180910390fd5b6000600160008581526020019081526020016000209050600081600401540361035b576040517f08c379a0000000000000000000000000000000000000000000000000000000008152600401610352906119f7565b60405180910390fd5b6000600381111561036f5761036e6115e1565b5b8160050160009054906101000a900460ff166003811115610393576103926115e1565b5b146103d3576040517f08c379a00000000000000000000000000000000000000000000000000000000081526004016103ca90611a63565b60405180910390fd5b826103df5760026103e2565b60015b8160050160006101000a81548160ff02191690836003811115610408576104076115e1565b5b0217905550818160050160016101000a81548160ff021916908360ff160217905550338160050160026101000a81548173ffffffffffffffffffffffffffffffffffffffff021916908373ffffffffffffffffffffffffffffffffffffffff1602179055504281600601819055503373ffffffffffffffffffffffffffffffffffffffff16847f03996dbd689292f6fb4d29490baea691f2c208090edec5ca2eec2af17766c2248360050160009054906101000a900460ff16856040516104d0929190611a83565b60405180910390a350505050565b60008060008054906101000a900473ffffffffffffffffffffffffffffffffffffffff1673ffffffffffffffffffffffffffffffffffffffff166379ce7ac1336040518263ffffffff1660e01b815260040161053a9190611aac565b602060405180830381865afa158015610557573d6000803e3d6000fd5b505050506040513d601f19601f8201168201806040525081019061057b9190611af3565b036105bb576040517f08c379a00000000000000000000000000000000000000000000000000000000081526004016105b290611b6c565b60405180910390fd5b6000878733426040516020016105d49493929190611c16565b6040516020818303038152906040528051906020012090506000600160008381526020019081526020016000206004015414610645576040517f08c379a000000000000000000000000000000000000000000000000000000000815260040161063c90611cb0565b60405180910390fd5b6040518061014001604052808981526020018881526020013373ffffffffffffffffffffffffffffffffffffffff16815260200187878080601f016020809104026020016040519081016040528093929190818152602001838380828437600081840152601f19601f820116905080830192505050505050508152602001428152602001600060038111156106dd576106dc6115e1565b5b8152602001600060ff168152602001600073ffffffffffffffffffffffffffffffffffffffff1681526020016000815260200185858080601f016020809104026020016040519081016040528093929190818152602001838380828437600081840152601f19601f8201169050808301925050505050505081525060016000838152602001908152602001600020600082015181600001556020820151816001015560408201518160020160006101000a81548173ffffffffffffffffffffffffffffffffffffffff021916908373ffffffffffffffffffffffffffffffffffffffff16021790555060608201518160030190816107db9190611f01565b506080820151816004015560a08201518160050160006101000a81548160ff02191690836003811115610811576108106115e1565b5b021790555060c08201518160050160016101000a81548160ff021916908360ff16021790555060e08201518160050160026101000a81548173ffffffffffffffffffffffffffffffffffffffff021916908373ffffffffffffffffffffffffffffffffffffffff160217905550610100820151816006015561012082015181600701908161089f9190611f01565b50905050600260003373ffffffffffffffffffffffffffffffffffffffff1673ffffffffffffffffffffffffffffffffffffffff16815260200190815260200160002060008154809291906108f390612002565b91905055503373ffffffffffffffffffffffffffffffffffffffff16817fb62aab5264e3cccd07efc1a42191fa4c3afdf453caa33030dc9a37c96d20877586864260405161094393929190612086565b60405180910390a3809150509695505050505050565b600060016000858152602001908152602001600020905060016003811115610984576109836115e1565b5b8160050160009054906101000a900460ff1660038111156109a8576109a76115e1565b5b14806109e95750600260038111156109c3576109c26115e1565b5b8160050160009054906101000a900460ff1660038111156109e7576109e66115e1565b5b145b610a28576040517f08c379a0000000000000000000000000000000000000000000000000000000008152600401610a1f90612104565b60405180910390fd5b62093a808160060154610a3b9190612124565b421115610a7d576040517f08c379a0000000000000000000000000000000000000000000000000000000008152600401610a74906121a4565b60405180910390fd5b60038160050160006101000a81548160ff02191690836003811115610aa557610aa46115e1565b5b02179055503373ffffffffffffffffffffffffffffffffffffffff16847f4ee4f8de380c073253f7c3d2e8a900ccc1bd1b9ddb54d46374a4c09a5f92f4c28585604051610af39291906121c4565b60405180910390a350505050565b60026020528060005260406000206000915090505481565b60008054906101000a900473ffffffffffffffffffffffffffffffffffffffff1681565b6001600360008373ffffffffffffffffffffffffffffffffffffffff1673ffffffffffffffffffffffffffffffffffffffff16815260200190815260200160002060006101000a81548160ff02191690831515021790555050565b60016020528060005260406000206000915090508060000154908060010154908060020160009054906101000a900473ffffffffffffffffffffffffffffffffffffffff1690806003018054610bed90611d2e565b80601f0160208091040260200160405190810160405280929190818152602001828054610c1990611d2e565b8015610c665780601f10610c3b57610100808354040283529160200191610c66565b820191906000526020600020905b815481529060010190602001808311610c4957829003601f168201915b5050505050908060040154908060050160009054906101000a900460ff16908060050160019054906101000a900460ff16908060050160029054906101000a900473ffffffffffffffffffffffffffffffffffffffff1690806006015490806007018054610cd390611d2e565b80601f0160208091040260200160405190810160405280929190818152602001828054610cff90611d2e565b8015610d4c5780601f10610d2157610100808354040283529160200191610d4c565b820191906000526020600020905b815481529060010190602001808311610d2f57829003601f168201915b505050505090508a565b60036020528060005260406000206000915054906101000a900460ff1681565b610d7e6110a8565b6000600160008481526020019081526020016000206004015403610dd7576040517f08c379a0000000000000000000000000000000000000000000000000000000008152600401610dce906119f7565b60405180910390fd5b600160008381526020019081526020016000206040518061014001604052908160008201548152602001600182015481526020016002820160009054906101000a900473ffffffffffffffffffffffffffffffffffffffff1673ffffffffffffffffffffffffffffffffffffffff1673ffffffffffffffffffffffffffffffffffffffff168152602001600382018054610e7090611d2e565b80601f0160208091040260200160405190810160405280929190818152602001828054610e9c90611d2e565b8015610ee95780601f10610ebe57610100808354040283529160200191610ee9565b820191906000526020600020905b815481529060010190602001808311610ecc57829003601f168201915b50505050508152602001600482015481526020016005820160009054906101000a900460ff166003811115610f2157610f206115e1565b5b6003811115610f3357610f326115e1565b5b81526020016005820160019054906101000a900460ff1660ff1660ff1681526020016005820160029054906101000a900473ffffffffffffffffffffffffffffffffffffffff1673ffffffffffffffffffffffffffffffffffffffff1673ffffffffffffffffffffffffffffffffffffffff16815260200160068201548152602001600782018054610fc490611d2e565b80601f0160208091040260200160405190810160405280929190818152602001828054610ff090611d2e565b801561103d5780601f106110125761010080835404028352916020019161103d565b820191906000526020600020905b81548152906001019060200180831161102057829003601f168201915b5050505050815250509050919050565b6000600360008373ffffffffffffffffffffffffffffffffffffffff1673ffffffffffffffffffffffffffffffffffffffff16815260200190815260200160002060006101000a81548160ff02191690831515021790555050565b6040518061014001604052806000801916815260200160008019168152602001600073ffffffffffffffffffffffffffffffffffffffff168152602001606081526020016000815260200160006003811115611107576111066115e1565b5b8152602001600060ff168152602001600073ffffffffffffffffffffffffffffffffffffffff16815260200160008152602001606081525090565b600080fd5b600080fd5b6000819050919050565b61115f8161114c565b811461116a57600080fd5b50565b60008135905061117c81611156565b92915050565b60008115159050919050565b61119781611182565b81146111a257600080fd5b50565b6000813590506111b48161118e565b92915050565b600060ff82169050919050565b6111d0816111ba565b81146111db57600080fd5b50565b6000813590506111ed816111c7565b92915050565b60008060006060848603121561120c5761120b611142565b5b600061121a8682870161116d565b935050602061122b868287016111a5565b925050604061123c868287016111de565b9150509250925092565b600080fd5b600080fd5b600080fd5b60008083601f84011261126b5761126a611246565b5b8235905067ffffffffffffffff8111156112885761128761124b565b5b6020830191508360018202830111156112a4576112a3611250565b5b9250929050565b600080600080600080608087890312156112c8576112c7611142565b5b60006112d689828a0161116d565b96505060206112e789828a0161116d565b955050604087013567ffffffffffffffff81111561130857611307611147565b5b61131489828a01611255565b9450945050606087013567ffffffffffffffff81111561133757611336611147565b5b61134389828a01611255565b92509250509295509295509295565b61135b8161114c565b82525050565b60006020820190506113766000830184611352565b92915050565b60008060006040848603121561139557611394611142565b5b60006113a38682870161116d565b935050602084013567ffffffffffffffff8111156113c4576113c3611147565b5b6113d086828701611255565b92509250509250925092565b600073ffffffffffffffffffffffffffffffffffffffff82169050919050565b6000611407826113dc565b9050919050565b611417816113fc565b811461142257600080fd5b50565b6000813590506114348161140e565b92915050565b6000602082840312156114505761144f611142565b5b600061145e84828501611425565b91505092915050565b6000819050919050565b61147a81611467565b82525050565b60006020820190506114956000830184611471565b92915050565b6000819050919050565b60006114c06114bb6114b6846113dc565b61149b565b6113dc565b9050919050565b60006114d2826114a5565b9050919050565b60006114e4826114c7565b9050919050565b6114f4816114d9565b82525050565b600060208201905061150f60008301846114eb565b92915050565b60006020828403121561152b5761152a611142565b5b60006115398482850161116d565b91505092915050565b61154b816113fc565b82525050565b600081519050919050565b600082825260208201905092915050565b60005b8381101561158b578082015181840152602081019050611570565b60008484015250505050565b6000601f19601f8301169050919050565b60006115b382611551565b6115bd818561155c565b93506115cd81856020860161156d565b6115d681611597565b840191505092915050565b7f4e487b7100000000000000000000000000000000000000000000000000000000600052602160045260246000fd5b60048110611621576116206115e1565b5b50565b600081905061163282611610565b919050565b600061164282611624565b9050919050565b61165281611637565b82525050565b611661816111ba565b82525050565b60006101408201905061167d600083018d611352565b61168a602083018c611352565b611697604083018b611542565b81810360608301526116a9818a6115a8565b90506116b86080830189611471565b6116c560a0830188611649565b6116d260c0830187611658565b6116df60e0830186611542565b6116ed610100830185611471565b81810361012083015261170081846115a8565b90509b9a5050505050505050505050565b61171a81611182565b82525050565b60006020820190506117356000830184611711565b92915050565b6117448161114c565b82525050565b611753816113fc565b82525050565b600082825260208201905092915050565b600061177582611551565b61177f8185611759565b935061178f81856020860161156d565b61179881611597565b840191505092915050565b6117ac81611467565b82525050565b6117bb81611637565b82525050565b6117ca816111ba565b82525050565b6000610140830160008301516117e9600086018261173b565b5060208301516117fc602086018261173b565b50604083015161180f604086018261174a565b5060608301518482036060860152611827828261176a565b915050608083015161183c60808601826117a3565b5060a083015161184f60a08601826117b2565b5060c083015161186260c08601826117c1565b5060e083015161187560e086018261174a565b5061010083015161188a6101008601826117a3565b506101208301518482036101208601526118a4828261176a565b9150508091505092915050565b600060208201905081810360008301526118cb81846117d0565b905092915050565b7f4e6f7420617574686f72697a6564207665726966696572000000000000000000600082015250565b600061190960178361155c565b9150611914826118d3565b602082019050919050565b60006020820190508181036000830152611938816118fc565b9050919050565b7f496e76616c69642073636f726500000000000000000000000000000000000000600082015250565b6000611975600d8361155c565b91506119808261193f565b602082019050919050565b600060208201905081810360008301526119a481611968565b9050919050565b7f4174746573746174696f6e20646f6573206e6f74206578697374000000000000600082015250565b60006119e1601a8361155c565b91506119ec826119ab565b602082019050919050565b60006020820190508181036000830152611a10816119d4565b9050919050565b7f416c726561647920766572696669656400000000000000000000000000000000600082015250565b6000611a4d60108361155c565b9150611a5882611a17565b602082019050919050565b60006020820190508181036000830152611a7c81611a40565b9050919050565b6000604082019050611a986000830185611649565b611aa56020830184611658565b9392505050565b6000602082019050611ac16000830184611542565b92915050565b611ad081611467565b8114611adb57600080fd5b50565b600081519050611aed81611ac7565b92915050565b600060208284031215611b0957611b08611142565b5b6000611b1784828501611ade565b91505092915050565b7f4167656e74206e6f742072656769737465726564000000000000000000000000600082015250565b6000611b5660148361155c565b9150611b6182611b20565b602082019050919050565b60006020820190508181036000830152611b8581611b49565b9050919050565b6000819050919050565b611ba7611ba28261114c565b611b8c565b82525050565b60008160601b9050919050565b6000611bc582611bad565b9050919050565b6000611bd782611bba565b9050919050565b611bef611bea826113fc565b611bcc565b82525050565b6000819050919050565b611c10611c0b82611467565b611bf5565b82525050565b6000611c228287611b96565b602082019150611c328286611b96565b602082019150611c428285611bde565b601482019150611c528284611bff565b60208201915081905095945050505050565b7f4174746573746174696f6e20616c726561647920657869737473000000000000600082015250565b6000611c9a601a8361155c565b9150611ca582611c64565b602082019050919050565b60006020820190508181036000830152611cc981611c8d565b9050919050565b7f4e487b7100000000000000000000000000000000000000000000000000000000600052604160045260246000fd5b7f4e487b7100000000000000000000000000000000000000000000000000000000600052602260045260246000fd5b60006002820490506001821680611d4657607f821691505b602082108103611d5957611d58611cff565b5b50919050565b60008190508160005260206000209050919050565b60006020601f8301049050919050565b600082821b905092915050565b600060088302611dc17fffffffffffffffffffffffffffffffffffffffffffffffffffffffffffffffff82611d84565b611dcb8683611d84565b95508019841693508086168417925050509392505050565b6000611dfe611df9611df484611467565b61149b565b611467565b9050919050565b6000819050919050565b611e1883611de3565b611e2c611e2482611e05565b848454611d91565b825550505050565b600090565b611e41611e34565b611e4c818484611e0f565b505050565b5b81811015611e7057611e65600082611e39565b600181019050611e52565b5050565b601f821115611eb557611e8681611d5f565b611e8f84611d74565b81016020851015611e9e578190505b611eb2611eaa85611d74565b830182611e51565b50505b505050565b600082821c905092915050565b6000611ed860001984600802611eba565b1980831691505092915050565b6000611ef18383611ec7565b9150826002028217905092915050565b611f0a82611551565b67ffffffffffffffff811115611f2357611f22611cd0565b5b611f2d8254611d2e565b611f38828285611e74565b600060209050601f831160018114611f6b5760008415611f59578287015190505b611f638582611ee5565b865550611fcb565b601f198416611f7986611d5f565b60005b82811015611fa157848901518255600182019150602085019450602081019050611f7c565b86831015611fbe5784890151611fba601f891682611ec7565b8355505b6001600288020188555050505b505050505050565b7f4e487b7100000000000000000000000000000000000000000000000000000000600052601160045260246000fd5b600061200d82611467565b91507fffffffffffffffffffffffffffffffffffffffffffffffffffffffffffffffff820361203f5761203e611fd3565b5b600182019050919050565b82818337600083830152505050565b6000612065838561155c565b935061207283858461204a565b61207b83611597565b840190509392505050565b600060408201905081810360008301526120a1818587612059565b90506120b06020830184611471565b949350505050565b7f4e6f742076657269666965642079657400000000000000000000000000000000600082015250565b60006120ee60108361155c565b91506120f9826120b8565b602082019050919050565b6000602082019050818103600083015261211d816120e1565b9050919050565b600061212f82611467565b915061213a83611467565b925082820190508082111561215257612151611fd3565b5b92915050565b7f4368616c6c656e676520706572696f6420657870697265640000000000000000600082015250565b600061218e60188361155c565b915061219982612158565b602082019050919050565b600060208201905081810360008301526121bd81612181565b9050919050565b600060208201905081810360008301526121df818486612059565b9050939250505056fea2646970667358221220f8c7d6027bda7378dac4986d2f2f0b940fb8f526f30aa9e81185193adca92ece64736f6c63430008140033",
  "linkReferences": {},
  "deployedLinkReferences": {}
}