{"contracts/AnnaReputation.sol":{"AnnaReputation":{"abi":[{"inputs":[{"internalType":"address","name":"_attestationContract","type":"address"}],"stateMutability":"nonpayable","type":"constructor"},{"anonymous":false,"inputs":[{"indexed":true,"internalType":"address","name":"agent","type":"address"},{"indexed":false,"internalType":"uint256","name":"newScore","type":"uint256"},{"indexed":false,"internalType":"uint256","name":"timestamp","type":"uint256"}],"name":"ReputationUpdated","type":"event"},{"inputs":[],"name":"AGE_WEIGHT","outputs":[{"internalType":"uint256","name":"","type":"uint256"}],"stateMutability":"view","type":"function"},{"inputs":[],"name":"CONSISTENCY_WEIGHT","outputs":[{"internalType":"uint256","name":"","type":"uint256"}],"stateMutability":"view","type":"function"},{"inputs":[],"name":"PENALTY_WEIGHT","outputs":[{"internalType":"uint256","name":"","type":"uint256"}],"stateMutability":"view","type":"function"},{"inputs":[],"name":"VOLUME_WEIGHT","outputs":[{"internalType":"uint256","name":"","type":"uint256"}],"stateMutability":"view","type":"function"},{"inputs":[],"name":"attestationContract","outputs":[{"internalType":"contract AnnaAttestation","name":"","type":"address"}],"stateMutability":"view","type":"function"},{"inputs":[{"internalType":"address","name":"agent","type":"address"}],"name":"getFullReputation","outputs":[{"internalType":"uint256","name":"score","type":"uint256"},{"internalType":"uint256","name":"totalAttestations","type":"uint256"},{"internalType":"uint256","name":"verifiedAttestations","type":"uint256"},{"internalType":"uint256","name":"averageConsistency","type":"uint256"}],"stateMutability":"view","type":"function"},{"inputs":[{"internalType":"address","name":"","type":"address"}],"name":"reputationData","outputs":[{"internalType":"uint256","name":"totalAttestations","type":"uint256"},{"internalType":"uint256","name":"verifiedAttestations","type":"uint256"},{"internalType":"uint256","name":"rejectedAttestations","type":"uint256"},{"internalType":"uint256","name":"averageConsistencyScore","type":"uint256"},{"internalType":"uint256","name":"registrationTime","type":"uint256"},{"internalType":"uint256","name":"lastUpdateTime","type":"uint256"}],"stateMutability":"view","type":"function"},{"inputs":[{"internalType":"address","name":"","type":"address"}],"name":"reputationScore","outputs":[{"internalType":"uint256","name":"","type":"uint256"}],"stateMutability":"view","type":"function"},{"inputs":[{"internalType":"address","name":"agent","type":"address"},{"internalType":"bytes32","name":"attestationId","type":"bytes32"}],"name":"updateReputation","outputs":[],"stateMutability":"nonpayable","type":"function"}],"evm":{"bytecode":{"linkReferences":{},"object":"60806040523480156200001157600080fd5b506040516200119d3803806200119d8339818101604052810190620000379190620000e8565b806000806101000a81548173ffffffffffffffffffffffffffffffffffffffff021916908373ffffffffffffffffffffffffffffffffffffffff160217905550506200011a565b600080fd5b600073ffffffffffffffffffffffffffffffffffffffff82169050919050565b6000620000b08262000083565b9050919050565b620000c281620000a3565b8114620000ce57600080fd5b50565b600081519050620000e281620000b7565b92915050565b6000602082840312156200010157620001006200007e565b5b60006200011184828501620000d1565b91505092915050565b611073806200012a6000396000f3fe608060405234801561001057600080fd5b50600436106100935760003560e01c806387be6d4e1161006657806387be6d4e1461013757806389b3dd061461015557806389facacf14610171578063a87693051461018f578063ede53540146101c457610093565b80631b98dd0f1461009857806326ee7f56146100b657806350d061cb146100e95780635f14a35414610119575b600080fd5b6100a06101e2565b6040516100ad9190610854565b60405180910390f35b6100d060048036038101906100cb91906108e1565b6101e8565b6040516100e0949392919061090e565b60405180910390f35b61010360048036038101906100fe91906108e1565b6102d7565b6040516101109190610854565b60405180910390f35b6101216102ef565b60405161012e9190610854565b60405180910390f35b61013f6102f4565b60405161014c91906109b2565b60405180910390f35b61016f600480360381019061016a9190610a03565b610318565b005b6101796105ca565b6040516101869190610854565b60405180910390f35b6101a960048036038101906101a491906108e1565b6105d0565b6040516101bb96959493929190610a43565b60405180910390f35b6101cc61060c565b6040516101d99190610854565b60405180910390f35b61019081565b6000806000806000600160008773ffffffffffffffffffffffffffffffffffffffff1673ffffffffffffffffffffffffffffffffffffffff1681526020019081526020016000206040518060c001604052908160008201548152602001600182015481526020016002820154815260200160038201548152602001600482015481526020016005820154815250509050600260008773ffffffffffffffffffffffffffffffffffffffff1673ffffffffffffffffffffffffffffffffffffffff168152602001908152602001600020548160000151826020015183606001519450945094509450509193509193565b60026020528060005260406000206000915090505481565b609681565b60008054906101000a900473ffffffffffffffffffffffffffffffffffffffff1681565b60008060009054906101000a900473ffffffffffffffffffffffffffffffffffffffff1673ffffffffffffffffffffffffffffffffffffffff1663a3112a64836040518263ffffffff1660e01b81526004016103749190610ab3565b600060405180830381865afa158015610391573d6000803e3d6000fd5b505050506040513d6000823e3d601f19601f820116820180604052508101906103ba9190610e1b565b90506000600160008573ffffffffffffffffffffffffffffffffffffffff1673ffffffffffffffffffffffffffffffffffffffff16815260200190815260200160002090506000816004015403610415574281600401819055505b80600001600081548092919061042a90610e93565b91905055506001600381111561044357610442610edb565b5b8260a00151600381111561045a57610459610edb565b5b036104cd5780600101600081548092919061047490610e93565b919050555060006001826001015461048c9190610f0a565b826003015461049b9190610f3e565b905081600101548360c0015160ff16826104b59190610f80565b6104bf9190610fe3565b826003018190555050610519565b600260038111156104e1576104e0610edb565b5b8260a0015160038111156104f8576104f7610edb565b5b036105185780600201600081548092919061051290610e93565b91905055505b5b428160050181905550600061052d85610612565b905080600260008773ffffffffffffffffffffffffffffffffffffffff1673ffffffffffffffffffffffffffffffffffffffff168152602001908152602001600020819055508473ffffffffffffffffffffffffffffffffffffffff167f5b88a2e3fc1a53234357ab78c104df11c33ccfa79886793654565ad70b8afb6e82426040516105bb929190611014565b60405180910390a25050505050565b6101f481565b60016020528060005260406000206000915090508060000154908060010154908060020154908060030154908060040154908060050154905086565b61012c81565b600080600160008473ffffffffffffffffffffffffffffffffffffffff1673ffffffffffffffffffffffffffffffffffffffff1681526020019081526020016000206040518060c00160405290816000820154815260200160018201548152602001600282015481526020016003820154815260200160048201548152602001600582015481525050905060008160000151036106b3576000915050610802565b6000600a6106d0600184602001516106cb9190610f80565b610807565b6106da9190610f3e565b905060648111156106ea57606490505b6000826060015190506000620151808460800151426107099190610f0a565b6107139190610fe3565b9050600061016d821161073f5761016d6064836107309190610f3e565b61073a9190610fe3565b610742565b60645b90506000600a86604001516107579190610f3e565b905060006103e860968461076b9190610f3e565b610190876107799190610f3e565b61012c896107879190610f3e565b6107919190610f80565b61079b9190610f80565b6107a59190610fe3565b905060006103e86101f4846107ba9190610f3e565b6107c49190610fe3565b9050808211156107f557600a81836107dc9190610f0a565b6107e69190610f3e565b98505050505050505050610802565b6000985050505050505050505b919050565b600080600090505b600183111561083257600183901c9250808061082a90610e93565b91505061080f565b80915050919050565b6000819050919050565b61084e8161083b565b82525050565b60006020820190506108696000830184610845565b92915050565b6000604051905090565b600080fd5b600080fd5b600073ffffffffffffffffffffffffffffffffffffffff82169050919050565b60006108ae82610883565b9050919050565b6108be816108a3565b81146108c957600080fd5b50565b6000813590506108db816108b5565b92915050565b6000602082840312156108f7576108f6610879565b5b6000610905848285016108cc565b91505092915050565b60006080820190506109236000830187610845565b6109306020830186610845565b61093d6040830185610845565b61094a6060830184610845565b95945050505050565b6000819050919050565b600061097861097361096e84610883565b610953565b610883565b9050919050565b600061098a8261095d565b9050919050565b600061099c8261097f565b9050919050565b6109ac81610991565b82525050565b60006020820190506109c760008301846109a3565b92915050565b6000819050919050565b6109e0816109cd565b81146109eb57600080fd5b50565b6000813590506109fd816109d7565b92915050565b60008060408385031215610a1a57610a19610879565b5b6000610a28858286016108cc565b9250506020610a39858286016109ee565b9150509250929050565b600060c082019050610a586000830189610845565b610a656020830188610845565b610a726040830187610845565b610a7f6060830186610845565b610a8c6080830185610845565b610a9960a0830184610845565b979650505050505050565b610aad816109cd565b82525050565b6000602082019050610ac86000830184610aa4565b92915050565b600080fd5b6000601f19601f8301169050919050565b7f4e487b7100000000000000000000000000000000000000000000000000000000600052604160045260246000fd5b610b1c82610ad3565b810181811067ffffffffffffffff82111715610b3b57610b3a610ae4565b5b80604052505050565b6000610b4e61086f565b9050610b5a8282610b13565b919050565b600080fd5b600081519050610b73816109d7565b92915050565b600081519050610b88816108b5565b92915050565b600080fd5b600080fd5b600067ffffffffffffffff821115610bb357610bb2610ae4565b5b610bbc82610ad3565b9050602081019050919050565b60005b83811015610be7578082015181840152602081019050610bcc565b60008484015250505050565b6000610c06610c0184610b98565b610b44565b905082815260208101848484011115610c2257610c21610b93565b5b610c2d848285610bc9565b509392505050565b600082601f830112610c4a57610c49610b8e565b5b8151610c5a848260208601610bf3565b91505092915050565b610c6c8161083b565b8114610c7757600080fd5b50565b600081519050610c8981610c63565b92915050565b60048110610c9c57600080fd5b50565b600081519050610cae81610c8f565b92915050565b600060ff82169050919050565b610cca81610cb4565b8114610cd557600080fd5b50565b600081519050610ce781610cc1565b92915050565b60006101408284031215610d0457610d03610ace565b5b610d0f610140610b44565b90506000610d1f84828501610b64565b6000830152506020610d3384828501610b64565b6020830152506040610d4784828501610b79565b604083015250606082015167ffffffffffffffff811115610d6b57610d6a610b5f565b5b610d7784828501610c35565b6060830152506080610d8b84828501610c7a565b60808301525060a0610d9f84828501610c9f565b60a08301525060c0610db384828501610cd8565b60c08301525060e0610dc784828501610b79565b60e083015250610100610ddc84828501610c7a565b6101008301525061012082015167ffffffffffffffff811115610e0257610e01610b5f565b5b610e0e84828501610c35565b6101208301525092915050565b600060208284031215610e3157610e30610879565b5b600082015167ffffffffffffffff811115610e4f57610e4e61087e565b5b610e5b84828501610ced565b91505092915050565b7f4e487b7100000000000000000000000000000000000000000000000000000000600052601160045260246000fd5b6000610e9e8261083b565b91507fffffffffffffffffffffffffffffffffffffffffffffffffffffffffffffffff8203610ed057610ecf610e64565b5b600182019050919050565b7f4e487b7100000000000000000000000000000000000000000000000000000000600052602160045260246000fd5b6000610f158261083b565b9150610f208361083b565b9250828203905081811115610f3857610f37610e64565b5b92915050565b6000610f498261083b565b9150610f548361083b565b9250828202610f628161083b565b91508282048414831517610f7957610f78610e64565b5b5092915050565b6000610f8b8261083b565b9150610f968361083b565b9250828201905080821115610fae57610fad610e64565b5b92915050565b7f4e487b7100000000000000000000000000000000000000000000000000000000600052601260045260246000fd5b6000610fee8261083b565b9150610ff98361083b565b92508261100957611008610fb4565b5b828204905092915050565b60006040820190506110296000830185610845565b6110366020830184610845565b939250505056fea26469706673582212202b3ba769f48b4f3ad244ec5a45ba4b41fc874c1f54a718e8cf9088540354d00764736f6c63430008140033","opcodes":"PUSH1 0x80 PUSH1 0x40 MSTORE CALLVALUE DUP1 ISZERO PUSH3 0x11 JUMPI PUSH1 0x0 DUP1 REVERT JUMPDEST POP PUSH1 0x40 MLOAD PUSH3 0x119D CODESIZE SUB DUP1 PUSH3 0x119D DUP4 CODECOPY DUP2 DUP2 ADD PUSH1 0x40 MSTORE DUP2 ADD SWAP1 PUSH3 0x37 SWAP2 SWAP1 PUSH3 0xE8 JUMP JUMPDEST DUP1 PUSH1 0x0 DUP1 PUSH2 0x100 EXP DUP2 SLOAD DUP2 PUSH20 0xFFFFFFFFFFFFFFFFFFFFFFFFFFFFFFFFFFFFFFFF MUL NOT AND SWAP1 DUP4 PUSH20 0xFFFFFFFFFFFFFFFFFFFFFFFFFFFFFFFFFFFFFFFF AND MUL OR SWAP1 SSTORE POP POP PUSH3 0x11A JUMP JUMPDEST PUSH1 0x0 DUP1 REVERT JUMPDEST PUSH1 0x0 PUSH20 0xFFFFFFFFFFFFFFFFFFFFFFFFFFFFFFFFFFFFFFFF DUP3 AND SWAP1 POP SWAP2 SWAP1 POP JUMP JUMPDEST PUSH1 0x0 PUSH3 0xB0 DUP3 PUSH3 0x83 JUMP JUMPDEST SWAP1 POP SWAP2 SWAP1 POP JUMP JUMPDEST PUSH3 0xC2 DUP2 PUSH3 0xA3 JUMP JUMPDEST DUP2 EQ PUSH3 0xCE JUMPI PUSH1 0x0 DUP1 REVERT JUMPDEST POP JUMP JUMPDEST PUSH1 0x0 DUP2 MLOAD SWAP1 POP PUSH3 0xE2 DUP2 PUSH3 0xB7 JUMP JUMPDEST SWAP3 SWAP2 POP POP JUMP JUMPDEST PUSH1 0x0 PUSH1 0x20 DUP3 DUP5 SUB SLT ISZERO PUSH3 0x101 JUMPI PUSH3 0x100 PUSH3 0x7E JUMP JUMPDEST JUMPDEST PUSH1 0x0 PUSH3 0x111 DUP5 DUP3 DUP6 ADD PUSH3 0xD1 JUMP JUMPDEST SWAP2 POP POP SWAP3 SWAP2 POP POP JUMP JUMPDEST PUSH2 0x1073 DUP1 PUSH3 0x12A PUSH1 0x0 CODECOPY PUSH1 0x0 RETURN INVALID PUSH1 0x80 PUSH1 0x40 MSTORE CALLVALUE DUP1 ISZERO PUSH2 0x10 JUMPI PUSH1 0x0 DUP1 REVERT JUMPDEST POP PUSH1 0x4 CALLDATASIZE LT PUSH2 0x93 JUMPI PUSH1 0x0 CALLDATALOAD PUSH1 0xE0 SHR DUP1 PUSH4 0x87BE6D4E GT PUSH2 0x66 JUMPI DUP1 PUSH4 0x87BE6D4E EQ PUSH2 0x137 JUMPI DUP1 PUSH4 0x89B3DD06 EQ PUSH2 0x155 JUMPI DUP1 PUSH4 0x89FACACF EQ PUSH2 0x171 JUMPI DUP1 PUSH4 0xA8769305 EQ PUSH2 0x18F JUMPI DUP1 PUSH4 0xEDE53540 EQ PUSH2 0x1C4 JUMPI PUSH2 0x93 JUMP JUMPDEST DUP1 PUSH4 0x1B98DD0F EQ PUSH2 0x98 JUMPI DUP1 PUSH4 0x26EE7F56 EQ PUSH2 0xB6 JUMPI DUP1 PUSH4 0x50D061CB EQ PUSH2 0xE9 JUMPI DUP1 PUSH4 0x5F14A354 EQ PUSH2 0x119 JUMPI JUMPDEST PUSH1 0x0 DUP1 REVERT JUMPDEST PUSH2 0xA0 PUSH2 0x1E2 JUMP JUMPDEST PUSH1 0x40 MLOAD PUSH2 0xAD SWAP2 SWAP1 PUSH2 0x854 JUMP JUMPDEST PUSH1 0x40 MLOAD DUP1 SWAP2 SUB SWAP1 RETURN JUMPDEST PUSH2 0xD0 PUSH1 0x4 DUP1 CALLDATASIZE SUB DUP2 ADD SWAP1 PUSH2 0xCB SWAP2 SWAP1 PUSH2 0x8E1 JUMP JUMPDEST PUSH2 0x1E8 JUMP JUMPDEST PUSH1 0x40 MLOAD PUSH2 0xE0 SWAP5 SWAP4 SWAP3 SWAP2 SWAP1 PUSH2 0x90E JUMP JUMPDEST PUSH1 0x40 MLOAD DUP1 SWAP2 SUB SWAP1 RETURN JUMPDEST PUSH2 0x103 PUSH1 0x4 DUP1 CALLDATASIZE SUB DUP2 ADD SWAP1 PUSH2 0xFE SWAP2 SWAP1 PUSH2 0x8E1 JUMP JUMPDEST PUSH2 0x2D7 JUMP JUMPDEST PUSH1 0x40 MLOAD PUSH2 0x110 SWAP2 SWAP1 PUSH2 0x854 JUMP JUMPDEST PUSH1 0x40 MLOAD DUP1 SWAP2 SUB SWAP1 RETURN JUMPDEST PUSH2 0x121 PUSH2 0x2EF JUMP JUMPDEST PUSH1 0x40 MLOAD PUSH2 0x12E SWAP2 SWAP1 PUSH2 0x854 JUMP JUMPDEST PUSH1 0x40 MLOAD DUP1 SWAP2 SUB SWAP1 RETURN JUMPDEST PUSH2 0x13F PUSH2 0x2F4 JUMP JUMPDEST PUSH1 0x40 MLOAD PUSH2 0x14C SWAP2 SWAP1 PUSH2 0x9B2 JUMP JUMPDEST PUSH1 0x40 MLOAD DUP1 SWAP2 SUB SWAP1 RETURN JUMPDEST PUSH2 0x16F PUSH1 0x4 DUP1 CALLDATASIZE SUB DUP2 ADD SWAP1 PUSH2 0x16A SWAP2 SWAP1 PUSH2 0xA03 JUMP JUMPDEST PUSH2 0x318 JUMP JUMPDEST STOP JUMPDEST PUSH2 0x179 PUSH2 0x5CA JUMP JUMPDEST PUSH1 0x40 MLOAD PUSH2 0x186 SWAP2 SWAP1 PUSH2 0x854 JUMP JUMPDEST PUSH1 0x40 MLOAD DUP1 SWAP2 SUB SWAP1 RETURN JUMPDEST PUSH2 0x1A9 PUSH1 0x4 DUP1 CALLDATASIZE SUB DUP2 ADD SWAP1 PUSH2 0x1A4 SWAP2 SWAP1 PUSH2 0x8E1 JUMP JUMPDEST PUSH2 0x5D0 JUMP JUMPDEST PUSH1 0x40 MLOAD PUSH2 0x1BB SWAP7 SWAP6 SWAP5 SWAP4 SWAP3 SWAP2 SWAP1 PUSH2 0xA43 JUMP JUMPDEST PUSH1 0x40 MLOAD DUP1 SWAP2 SUB SWAP1 RETURN JUMPDEST PUSH2 0x1CC PUSH2 0x60C JUMP JUMPDEST PUSH1 0x40 MLOAD PUSH2 0x1D9 SWAP2 SWAP1 PUSH2 0x854 JUMP JUMPDEST PUSH1 0x40 MLOAD DUP1 SWAP2 SUB SWAP1 RETURN JUMPDEST PUSH2 0x190 DUP2 JUMP JUMPDEST PUSH1 0x0 DUP1 PUSH1 0x0 DUP1 PUSH1 0x0 PUSH1 0x1 PUSH1 0x0 DUP8 PUSH20 0xFFFFFFFFFFFFFFFFFFFFFFFFFFFFFFFFFFFFFFFF AND PUSH20 0xFFFFFFFFFFFFFFFFFFFFFFFFFFFFFFFFFFFFFFFF AND DUP2 MSTORE PUSH1 0x20 ADD SWAP1 DUP2 MSTORE PUSH1 0x20 ADD PUSH1 0x0 KECCAK256 PUSH1 0x40 MLOAD DUP1 PUSH1 0xC0 ADD PUSH1 0x40 MSTORE SWAP1 DUP2 PUSH1 0x0 DUP3 ADD SLOAD DUP2 MSTORE PUSH1 0x20 ADD PUSH1 0x1 DUP3 ADD SLOAD DUP2 MSTORE PUSH1 0x20 ADD PUSH1 0x2 DUP3 ADD SLOAD DUP2 MSTORE PUSH1 0x20 ADD PUSH1 0x3 DUP3 ADD SLOAD DUP2 MSTORE PUSH1 0x20 ADD PUSH1 0x4 DUP3 ADD SLOAD DUP2 MSTORE PUSH1 0x20 ADD PUSH1 0x5 DUP3 ADD SLOAD DUP2 MSTORE POP POP SWAP1 POP PUSH1 0x2 PUSH1 0x0 DUP8 PUSH20 0xFFFFFFFFFFFFFFFFFFFFFFFFFFFFFFFFFFFFFFFF AND PUSH20 0xFFFFFFFFFFFFFFFFFFFFFFFFFFFFFFFFFFFFFFFF AND DUP2 MSTORE PUSH1 0x20 ADD SWAP1 DUP2 MSTORE PUSH1 0x20 ADD PUSH1 0x0 KECCAK256 SLOAD DUP2 PUSH1 0x0 ADD MLOAD DUP3 PUSH1 0x20 ADD MLOAD DUP4 PUSH1 0x60 ADD MLOAD SWAP5 POP SWAP5 POP SWAP5 POP SWAP5 POP POP SWAP2 SWAP4 POP SWAP2 SWAP4 JUMP JUMPDEST PUSH1 0x2 PUSH1 0x20 MSTORE DUP1 PUSH1 0x0 MSTORE PUSH1 0x40 PUSH1 0x0 KECCAK256 PUSH1 0x0 SWAP2 POP SWAP1 POP SLOAD DUP2 JUMP JUMPDEST PUSH1 0x96 DUP2 JUMP JUMPDEST PUSH1 0x0 DUP1 SLOAD SWAP1 PUSH2 0x100 EXP SWAP1 DIV PUSH20 0xFFFFFFFFFFFFFFFFFFFFFFFFFFFFFFFFFFFFFFFF AND DUP2 JUMP JUMPDEST PUSH1 0x0 DUP1 PUSH1 0x0 SWAP1 SLOAD SWAP1 PUSH2 0x100 EXP SWAP1 DIV PUSH20 0xFFFFFFFFFFFFFFFFFFFFFFFFFFFFFFFFFFFFFFFF AND PUSH20 0xFFFFFFFFFFFFFFFFFFFFFFFFFFFFFFFFFFFFFFFF AND PUSH4 0xA3112A64 DUP4 PUSH1 0x40 MLOAD DUP3 PUSH4 0xFFFFFFFF AND PUSH1 0xE0 SHL DUP2 MSTORE PUSH1 0x4 ADD PUSH2 0x374 SWAP2 SWAP1 PUSH2 0xAB3 JUMP JUMPDEST PUSH1 0x0 PUSH1 0x40 MLOAD DUP1 DUP4 SUB DUP2 DUP7 GAS STATICCALL ISZERO DUP1 ISZERO PUSH2 0x391 JUMPI RETURNDATASIZE PUSH1 0x0 DUP1 RETURNDATACOPY RETURNDATASIZE PUSH1 0x0 REVERT JUMPDEST POP POP POP POP PUSH1 0x40 MLOAD RETURNDATASIZE PUSH1 0x0 DUP3 RETURNDATACOPY RETURNDATASIZE PUSH1 0x1F NOT PUSH1 0x1F DUP3 ADD AND DUP3 ADD DUP1 PUSH1 0x40 MSTORE POP DUP2 ADD SWAP1 PUSH2 0x3BA SWAP2 SWAP1 PUSH2 0xE1B JUMP JUMPDEST SWAP1 POP PUSH1 0x0 PUSH1 0x1 PUSH1 0x0 DUP6 PUSH20 0xFFFFFFFFFFFFFFFFFFFFFFFFFFFFFFFFFFFFFFFF AND PUSH20 0xFFFFFFFFFFFFFFFFFFFFFFFFFFFFFFFFFFFFFFFF AND DUP2 MSTORE PUSH1 0x20 ADD SWAP1 DUP2 MSTORE PUSH1 0x20 ADD PUSH1 0x0 KECCAK256 SWAP1 POP PUSH1 0x0 DUP2 PUSH1 0x4 ADD SLOAD SUB PUSH2 0x415 JUMPI TIMESTAMP DUP2 PUSH1 0x4 ADD DUP2 SWAP1 SSTORE POP JUMPDEST DUP1 PUSH1 0x0 ADD PUSH1 0x0 DUP2 SLOAD DUP1 SWAP3 SWAP2 SWAP1 PUSH2 0x42A SWAP1 PUSH2 0xE93 JUMP JUMPDEST SWAP2 SWAP1 POP SSTORE POP PUSH1 0x1 PUSH1 0x3 DUP2 GT ISZERO PUSH2 0x443 JUMPI PUSH2 0x442 PUSH2 0xEDB JUMP JUMPDEST JUMPDEST DUP3 PUSH1 0xA0 ADD MLOAD PUSH1 0x3 DUP2 GT ISZERO PUSH2 0x45A JUMPI PUSH2 0x459 PUSH2 0xEDB JUMP JUMPDEST JUMPDEST SUB PUSH2 0x4CD JUMPI DUP1 PUSH1 0x1 ADD PUSH1 0x0 DUP2 SLOAD DUP1 SWAP3 SWAP2 SWAP1 PUSH2 0x474 SWAP1 PUSH2 0xE93 JUMP JUMPDEST SWAP2 SWAP1 POP SSTORE POP PUSH1 0x0 PUSH1 0x1 DUP3 PUSH1 0x1 ADD SLOAD PUSH2 0x48C SWAP2 SWAP1 PUSH2 0xF0A JUMP JUMPDEST DUP3 PUSH1 0x3 ADD SLOAD PUSH2 0x49B SWAP2 SWAP1 PUSH2 0xF3E JUMP JUMPDEST SWAP1 POP DUP2 PUSH1 0x1 ADD SLOAD DUP4 PUSH1 0xC0 ADD MLOAD PUSH1 0xFF AND DUP3 PUSH2 0x4B5 SWAP2 SWAP1 PUSH2 0xF80 JUMP JUMPDEST PUSH2 0x4BF SWAP2 SWAP1 PUSH2 0xFE3 JUMP JUMPDEST DUP3 PUSH1 0x3 ADD DUP2 SWAP1 SSTORE POP POP PUSH2 0x519 JUMP JUMPDEST PUSH1 0x2 PUSH1 0x3 DUP2 GT ISZERO PUSH2 0x4E1 JUMPI PUSH2 0x4E0 PUSH2 0xEDB JUMP JUMPDEST JUMPDEST DUP3 PUSH1 0xA0 ADD MLOAD PUSH1 0x3 DUP2 GT ISZERO PUSH2 0x4F8 JUMPI PUSH2 0x4F7 PUSH2 0xEDB JUMP JUMPDEST JUMPDEST SUB PUSH2 0x518 JUMPI DUP1 PUSH1 0x2 ADD PUSH1 0x0 DUP2 SLOAD DUP1 SWAP3 SWAP2 SWAP1 PUSH2 0x512 SWAP1 PUSH2 0xE93 JUMP JUMPDEST SWAP2 SWAP1 POP SSTORE POP JUMPDEST JUMPDEST TIMESTAMP DUP2 PUSH1 0x5 ADD DUP2 SWAP1 SSTORE POP PUSH1 0x0 PUSH2 0x52D DUP6 PUSH2 0x612 JUMP JUMPDEST SWAP1 POP DUP1 PUSH1 0x2 PUSH1 0x0 DUP8 PUSH20 0xFFFFFFFFFFFFFFFFFFFFFFFFFFFFFFFFFFFFFFFF AND PUSH20 0xFFFFFFFFFFFFFFFFFFFFFFFFFFFFFFFFFFFFFFFF AND DUP2 MSTORE PUSH1 0x20 ADD SWAP1 DUP2 MSTORE PUSH1 0x20 ADD PUSH1 0x0 KECCAK256 DUP2 SWAP1 SSTORE POP DUP5 PUSH20 0xFFFFFFFFFFFFFFFFFFFFFFFFFFFFFFFFFFFFFFFF AND PUSH32 0x5B88A2E3FC1A53234357AB78C104DF11C33CCFA79886793654565AD70B8AFB6E DUP3 TIMESTAMP PUSH1 0x40 MLOAD PUSH2 0x5BB SWAP3 SWAP2 SWAP1 PUSH2 0x1014 JUMP JUMPDEST PUSH1 0x40 MLOAD DUP1 SWAP2 SUB SWAP1 LOG2 POP POP POP POP POP JUMP JUMPDEST PUSH2 0x1F4 DUP2 JUMP JUMPDEST PUSH1 0x1 PUSH1 0x20 MSTORE DUP1 PUSH1 0x0 MSTORE PUSH1 0x40 PUSH1 0x0 KECCAK256 PUSH1 0x0 SWAP2 POP SWAP1 POP DUP1 PUSH1 0x0 ADD SLOAD SWAP1 DUP1 PUSH1 0x1 ADD SLOAD SWAP1 DUP1 PUSH1 0x2 ADD SLOAD SWAP1 DUP1 PUSH1 0x3 ADD SLOAD SWAP1 DUP1 PUSH1 0x4 ADD SLOAD SWAP1 DUP1 PUSH1 0x5 ADD SLOAD SWAP1 POP DUP7 JUMP JUMPDEST PUSH2 0x12C DUP2 JUMP JUMPDEST PUSH1 0x0 DUP1 PUSH1 0x1 PUSH1 0x0 DUP5 PUSH20 0xFFFFFFFFFFFFFFFFFFFFFFFFFFFFFFFFFFFFFFFF AND PUSH20 0xFFFFFFFFFFFFFFFFFFFFFFFFFFFFFFFFFFFFFFFF AND DUP2 MSTORE PUSH1 0x20 ADD SWAP1 DUP2 MSTORE PUSH1 0x20 ADD PUSH1 0x0 KECCAK256 PUSH1 0x40 MLOAD DUP1 PUSH1 0xC0 ADD PUSH1 0x40 MSTORE SWAP1 DUP2 PUSH1 0x0 DUP3 ADD SLOAD DUP2 MSTORE PUSH1 0x20 ADD PUSH1 0x1 DUP3 ADD SLOAD DUP2 MSTORE PUSH1 0x20 ADD PUSH1 0x2 DUP3 ADD SLOAD DUP2 MSTORE PUSH1 0x20 ADD PUSH1 0x3 DUP3 ADD SLOAD DUP2 MSTORE PUSH1 0x20 ADD PUSH1 0x4 DUP3 ADD SLOAD DUP2 MSTORE PUSH1 0x20 ADD PUSH1 0x5 DUP3 ADD SLOAD DUP2 MSTORE POP POP SWAP1 POP PUSH1 0x0 DUP2 PUSH1 0x0 ADD MLOAD SUB PUSH2 0x6B3 JUMPI PUSH1 0x0 SWAP2 POP POP PUSH2 0x802 JUMP JUMPDEST PUSH1 0x0 PUSH1 0xA PUSH2 0x6D0 PUSH1 0x1 DUP5 PUSH1 0x20 ADD MLOAD PUSH2 0x6CB SWAP2 SWAP1 PUSH2 0xF80 JUMP JUMPDEST PUSH2 0x807 JUMP JUMPDEST PUSH2 0x6DA SWAP2 SWAP1 PUSH2 0xF3E JUMP JUMPDEST SWAP1 POP PUSH1 0x64 DUP2 GT ISZERO PUSH2 0x6EA JUMPI PUSH1 0x64 SWAP1 POP JUMPDEST PUSH1 0x0 DUP3 PUSH1 0x60 ADD MLOAD SWAP1 POP PUSH1 0x0 PUSH3 0x15180 DUP5 PUSH1 0x80 ADD MLOAD TIMESTAMP PUSH2 0x709 SWAP2 SWAP1 PUSH2 0xF0A JUMP JUMPDEST PUSH2 0x713 SWAP2 SWAP1 PUSH2 0xFE3 JUMP JUMPDEST SWAP1 POP PUSH1 0x0 PUSH2 0x16D DUP3 GT PUSH2 0x73F JUMPI PUSH2 0x16D PUSH1 0x64 DUP4 PUSH2 0x730 SWAP2 SWAP1 PUSH2 0xF3E JUMP JUMPDEST PUSH2 0x73A SWAP2 SWAP1 PUSH2 0xFE3 JUMP JUMPDEST PUSH2 0x742 JUMP JUMPDEST PUSH1 0x64 JUMPDEST SWAP1 POP PUSH1 0x0 PUSH1 0xA DUP7 PUSH1 0x40 ADD MLOAD PUSH2 0x757 SWAP2 SWAP1 PUSH2 0xF3E JUMP JUMPDEST SWAP1 POP PUSH1 0x0 PUSH2 0x3E8 PUSH1 0x96 DUP5 PUSH2 0x76B SWAP2 SWAP1 PUSH2 0xF3E JUMP JUMPDEST PUSH2 0x190 DUP8 PUSH2 0x779 SWAP2 SWAP1 PUSH2 0xF3E JUMP JUMPDEST PUSH2 0x12C DUP10 PUSH2 0x787 SWAP2 SWAP1 PUSH2 0xF3E JUMP JUMPDEST PUSH2 0x791 SWAP2 SWAP1 PUSH2 0xF80 JUMP JUMPDEST PUSH2 0x79B SWAP2 SWAP1 PUSH2 0xF80 JUMP JUMPDEST PUSH2 0x7A5 SWAP2 SWAP1 PUSH2 0xFE3 JUMP JUMPDEST SWAP1 POP PUSH1 0x0 PUSH2 0x3E8 PUSH2 0x1F4 DUP5 PUSH2 0x7BA SWAP2 SWAP1 PUSH2 0xF3E JUMP JUMPDEST PUSH2 0x7C4 SWAP2 SWAP1 PUSH2 0xFE3 JUMP JUMPDEST SWAP1 POP DUP1 DUP3 GT ISZERO PUSH2 0x7F5 JUMPI PUSH1 0xA DUP2 DUP4 PUSH2 0x7DC SWAP2 SWAP1 PUSH2 0xF0A JUMP JUMPDEST PUSH2 0x7E6 SWAP2 SWAP1 PUSH2 0xF3E JUMP JUMPDEST SWAP9 POP POP POP POP POP POP POP POP POP PUSH2 0x802 JUMP JUMPDEST PUSH1 0x0 SWAP9 POP POP POP POP POP POP POP POP POP JUMPDEST SWAP2 SWAP1 POP JUMP JUMPDEST PUSH1 0x0 DUP1 PUSH1 0x0 SWAP1 POP JUMPDEST PUSH1 0x1 DUP4 GT ISZERO PUSH2 0x832 JUMPI PUSH1 0x1 DUP4 SWAP1 SHR SWAP3 POP DUP1 DUP1 PUSH2 0x82A SWAP1 PUSH2 0xE93 JUMP JUMPDEST SWAP2 POP POP PUSH2 0x80F JUMP JUMPDEST DUP1 SWAP2 POP POP SWAP2 SWAP1 POP JUMP JUMPDEST PUSH1 0x0 DUP2 SWAP1 POP SWAP2 SWAP1 POP JUMP JUMPDEST PUSH2 0x84E DUP2 PUSH2 0x83B JUMP JUMPDEST DUP3 MSTORE POP POP JUMP JUMPDEST PUSH1 0x0 PUSH1 0x20 DUP3 ADD SWAP1 POP PUSH2 0x869 PUSH1 0x0 DUP4 ADD DUP5 PUSH2 0x845 JUMP JUMPDEST SWAP3 SWAP2 POP POP JUMP JUMPDEST PUSH1 0x0 PUSH1 0x40 MLOAD SWAP1 POP SWAP1 JUMP JUMPDEST PUSH1 0x0 DUP1 REVERT JUMPDEST PUSH1 0x0 DUP1 REVERT JUMPDEST PUSH1 0x0 PUSH20 0xFFFFFFFFFFFFFFFFFFFFFFFFFFFFFFFFFFFFFFFF DUP3 AND SWAP1 POP SWAP2 SWAP1 POP JUMP JUMPDEST PUSH1 0x0 PUSH2 0x8AE DUP3 PUSH2 0x883 JUMP JUMPDEST SWAP1 POP SWAP2 SWAP1 POP JUMP JUMPDEST PUSH2 0x8BE DUP2 PUSH2 0x8A3 JUMP JUMPDEST DUP2 EQ PUSH2 0x8C9 JUMPI PUSH1 0x0 DUP1 REVERT JUMPDEST POP JUMP JUMPDEST PUSH1 0x0 DUP2 CALLDATALOAD SWAP1 POP PUSH2 0x8DB DUP2 PUSH2 0x8B5 JUMP JUMPDEST SWAP3 SWAP2 POP POP JUMP JUMPDEST PUSH1 0x0 PUSH1 0x20 DUP3 DUP5 SUB SLT ISZERO PUSH2 0x8F7 JUMPI PUSH2 0x8F6 PUSH2 0x879 JUMP JUMPDEST JUMPDEST PUSH1 0x0 PUSH2 0x905 DUP5 DUP3 DUP6 ADD PUSH2 0x8CC JUMP JUMPDEST SWAP2 POP POP SWAP3 SWAP2 POP POP JUMP JUMPDEST PUSH1 0x0 PUSH1 0x80 DUP3 ADD SWAP1 POP PUSH2 0x923 PUSH1 0x0 DUP4 ADD DUP8 PUSH2 0x845 JUMP JUMPDEST PUSH2 0x930 PUSH1 0x20 DUP4 ADD DUP7 PUSH2 0x845 JUMP JUMPDEST PUSH2 0x93D PUSH1 0x40 DUP4 ADD DUP6 PUSH2 0x845 JUMP JUMPDEST PUSH2 0x94A PUSH1 0x60 DUP4 ADD DUP5 PUSH2 0x845 JUMP JUMPDEST SWAP6 SWAP5 POP POP POP POP POP JUMP JUMPDEST PUSH1 0x0 DUP2 SWAP1 POP SWAP2 SWAP1 POP JUMP JUMPDEST PUSH1 0x0 PUSH2 0x978 PUSH2 0x973 PUSH2 0x96E DUP5 PUSH2 0x883 JUMP JUMPDEST PUSH2 0x953 JUMP JUMPDEST PUSH2 0x883 JUMP JUMPDEST SWAP1 POP SWAP2 SWAP1 POP JUMP JUMPDEST PUSH1 0x0 PUSH2 0x98A DUP3 PUSH2 0x95D JUMP JUMPDEST SWAP1 POP SWAP2 SWAP1 POP JUMP JUMPDEST PUSH1 0x0 PUSH2 0x99C DUP3 PUSH2 0x97F JUMP JUMPDEST SWAP1 POP SWAP2 SWAP1 POP JUMP JUMPDEST PUSH2 0x9AC DUP2 PUSH2 0x991 JUMP JUMPDEST DUP3 MSTORE POP POP JUMP JUMPDEST PUSH1 0x0 PUSH1 0x20 DUP3 ADD SWAP1 POP PUSH2 0x9C7 PUSH1 0x0 DUP4 ADD DUP5 PUSH2 0x9A3 JUMP JUMPDEST SWAP3 SWAP2 POP POP JUMP JUMPDEST PUSH1 0x0 DUP2 SWAP1 POP SWAP2 SWAP1 POP JUMP JUMPDEST PUSH2 0x9E0 DUP2 PUSH2 0x9CD JUMP JUMPDEST DUP2 EQ PUSH2 0x9EB JUMPI PUSH1 0x0 DUP1 REVERT JUMPDEST POP JUMP JUMPDEST PUSH1 0x0 DUP2 CALLDATALOAD SWAP1 POP PUSH2 0x9FD DUP2 PUSH2 0x9D7 JUMP JUMPDEST SWAP3 SWAP2 POP POP JUMP JUMPDEST PUSH1 0x0 DUP1 PUSH1 0x40 DUP4 DUP6 SUB SLT ISZERO PUSH2 0xA1A JUMPI PUSH2 0xA19 PUSH2 0x879 JUMP JUMPDEST JUMPDEST PUSH1 0x0 PUSH2 0xA28 DUP6 DUP3 DUP7 ADD PUSH2 0x8CC JUMP JUMPDEST SWAP3 POP POP PUSH1 0x20 PUSH2 0xA39 DUP6 DUP3 DUP7 ADD PUSH2 0x9EE JUMP JUMPDEST SWAP2 POP POP SWAP3 POP SWAP3 SWAP1 POP JUMP JUMPDEST PUSH1 0x0 PUSH1 0xC0 DUP3 ADD SWAP1 POP PUSH2 0xA58 PUSH1 0x0 DUP4 ADD DUP10 PUSH2 0x845 JUMP JUMPDEST PUSH2 0xA65 PUSH1 0x20 DUP4 ADD DUP9 PUSH2 0x845 JUMP JUMPDEST PUSH2 0xA72 PUSH1 0x40 DUP4 ADD DUP8 PUSH2 0x845 JUMP JUMPDEST PUSH2 0xA7F PUSH1 0x60 DUP4 ADD DUP7 PUSH2 0x845 JUMP JUMPDEST PUSH2 0xA8C PUSH1 0x80 DUP4 ADD DUP6 PUSH2 0x845 JUMP JUMPDEST PUSH2 0xA99 PUSH1 0xA0 DUP4 ADD DUP5 PUSH2 0x845 JUMP JUMPDEST SWAP8 SWAP7 POP POP POP POP POP POP POP JUMP JUMPDEST PUSH2 0xAAD DUP2 PUSH2 0x9CD JUMP JUMPDEST DUP3 MSTORE POP POP JUMP JUMPDEST PUSH1 0x0 PUSH1 0x20 DUP3 ADD SWAP1 POP PUSH2 0xAC8 PUSH1 0x0 DUP4 ADD DUP5 PUSH2 0xAA4 JUMP JUMPDEST SWAP3 SWAP2 POP POP JUMP JUMPDEST PUSH1 0x0 DUP1 REVERT JUMPDEST PUSH1 0x0 PUSH1 0x1F NOT PUSH1 0x1F DUP4 ADD AND SWAP1 POP SWAP2 SWAP1 POP JUMP JUMPDEST PUSH32 0x4E487B7100000000000000000000000000000000000000000000000000000000 PUSH1 0x0 MSTORE PUSH1 0x41 PUSH1 0x4 MSTORE PUSH1 0x24 PUSH1 0x0 REVERT JUMPDEST PUSH2 0xB1C DUP3 PUSH2 0xAD3 JUMP JUMPDEST DUP2 ADD DUP2 DUP2 LT PUSH8 0xFFFFFFFFFFFFFFFF DUP3 GT OR ISZERO PUSH2 0xB3B JUMPI PUSH2 0xB3A PUSH2 0xAE4 JUMP JUMPDEST JUMPDEST DUP1 PUSH1 0x40 MSTORE POP POP POP JUMP JUMPDEST PUSH1 0x0 PUSH2 0xB4E PUSH2 0x86F JUMP JUMPDEST SWAP1 POP PUSH2 0xB5A DUP3 DUP3 PUSH2 0xB13 JUMP JUMPDEST SWAP2 SWAP1 POP JUMP JUMPDEST PUSH1 0x0 DUP1 REVERT JUMPDEST PUSH1 0x0 DUP2 MLOAD SWAP1 POP PUSH2 0xB73 DUP2 PUSH2 0x9D7 JUMP JUMPDEST SWAP3 SWAP2 POP POP JUMP JUMPDEST PUSH1 0x0 DUP2 MLOAD SWAP1 POP PUSH2 0xB88 DUP2 PUSH2 0x8B5 JUMP JUMPDEST SWAP3 SWAP2 POP POP JUMP JUMPDEST PUSH1 0x0 DUP1 REVERT JUMPDEST PUSH1 0x0 DUP1 REVERT JUMPDEST PUSH1 0x0 PUSH8 0xFFFFFFFFFFFFFFFF DUP3 GT ISZERO PUSH2 0xBB3 JUMPI PUSH2 0xBB2 PUSH2 0xAE4 JUMP JUMPDEST JUMPDEST PUSH2 0xBBC DUP3 PUSH2 0xAD3 JUMP JUMPDEST SWAP1 POP PUSH1 0x20 DUP2 ADD SWAP1 POP SWAP2 SWAP1 POP JUMP JUMPDEST PUSH1 0x0 JUMPDEST DUP4 DUP2 LT ISZERO PUSH2 0xBE7 JUMPI DUP1 DUP3 ADD MLOAD DUP2 DUP5 ADD MSTORE PUSH1 0x20 DUP2 ADD SWAP1 POP PUSH2 0xBCC JUMP JUMPDEST PUSH1 0x0 DUP5 DUP5 ADD MSTORE POP POP POP POP JUMP JUMPDEST PUSH1 0x0 PUSH2 0xC06 PUSH2 0xC01 DUP5 PUSH2 0xB98 JUMP JUMPDEST PUSH2 0xB44 JUMP JUMPDEST SWAP1 POP DUP3 DUP2 MSTORE PUSH1 0x20 DUP2 ADD DUP5 DUP5 DUP5 ADD GT ISZERO PUSH2 0xC22 JUMPI PUSH2 0xC21 PUSH2 0xB93 JUMP JUMPDEST JUMPDEST PUSH2 0xC2D DUP5 DUP3 DUP6 PUSH2 0xBC9 JUMP JUMPDEST POP SWAP4 SWAP3 POP POP POP JUMP JUMPDEST PUSH1 0x0 DUP3 PUSH1 0x1F DUP4 ADD SLT PUSH2 0xC4A JUMPI PUSH2 0xC49 PUSH2 0xB8E JUMP JUMPDEST JUMPDEST DUP2 MLOAD PUSH2 0xC5A DUP5 DUP3 PUSH1 0x20 DUP7 ADD PUSH2 0xBF3 JUMP JUMPDEST SWAP2 POP POP SWAP3 SWAP2 POP POP JUMP JUMPDEST PUSH2 0xC6C DUP2 PUSH2 0x83B JUMP JUMPDEST DUP2 EQ PUSH2 0xC77 JUMPI PUSH1 0x0 DUP1 REVERT JUMPDEST POP JUMP JUMPDEST PUSH1 0x0 DUP2 MLOAD SWAP1 POP PUSH2 0xC89 DUP2 PUSH2 0xC63 JUMP JUMPDEST SWAP3 SWAP2 POP POP JUMP JUMPDEST PUSH1 0x4 DUP2 LT PUSH2 0xC9C JUMPI PUSH1 0x0 DUP1 REVERT JUMPDEST POP JUMP JUMPDEST PUSH1 0x0 DUP2 MLOAD SWAP1 POP PUSH2 0xCAE DUP2 PUSH2 0xC8F JUMP JUMPDEST SWAP3 SWAP2 POP POP JUMP JUMPDEST PUSH1 0x0 PUSH1 0xFF DUP3 AND SWAP1 POP SWAP2 SWAP1 POP JUMP JUMPDEST PUSH2 0xCCA DUP2 PUSH2 0xCB4 JUMP JUMPDEST DUP2 EQ PUSH2 0xCD5 JUMPI PUSH1 0x0 DUP1 REVERT JUMPDEST POP JUMP JUMPDEST PUSH1 0x0 DUP2 MLOAD SWAP1 POP PUSH2 0xCE7 DUP2 PUSH2 0xCC1 JUMP JUMPDEST SWAP3 SWAP2 POP POP JUMP JUMPDEST PUSH1 0x0 PUSH2 0x140 DUP3 DUP5 SUB SLT ISZERO PUSH2 0xD04 JUMPI PUSH2 0xD03 PUSH2 0xACE JUMP JUMPDEST JUMPDEST PUSH2 0xD0F PUSH2 0x140 PUSH2 0xB44 JUMP JUMPDEST SWAP1 POP PUSH1 0x0 PUSH2 0xD1F DUP5 DUP3 DUP6 ADD PUSH2 0xB64 JUMP JUMPDEST PUSH1 0x0 DUP4 ADD MSTORE POP PUSH1 0x20 PUSH2 0xD33 DUP5 DUP3 DUP6 ADD PUSH2 0xB64 JUMP JUMPDEST PUSH1 0x20 DUP4 ADD MSTORE POP PUSH1 0x40 PUSH2 0xD47 DUP5 DUP3 DUP6 ADD PUSH2 0xB79 JUMP JUMPDEST PUSH1 0x40 DUP4 ADD MSTORE POP PUSH1 0x60 DUP3 ADD MLOAD PUSH8 0xFFFFFFFFFFFFFFFF DUP2 GT ISZERO PUSH2 0xD6B JUMPI PUSH2 0xD6A PUSH2 0xB5F JUMP JUMPDEST JUMPDEST PUSH2 0xD77 DUP5 DUP3 DUP6 ADD PUSH2 0xC35 JUMP JUMPDEST PUSH1 0x60 DUP4 ADD MSTORE POP PUSH1 0x80 PUSH2 0xD8B DUP5 DUP3 DUP6 ADD PUSH2 0xC7A JUMP JUMPDEST PUSH1 0x80 DUP4 ADD MSTORE POP PUSH1 0xA0 PUSH2 0xD9F DUP5 DUP3 DUP6 ADD PUSH2 0xC9F JUMP JUMPDEST PUSH1 0xA0 DUP4 ADD MSTORE POP PUSH1 0xC0 PUSH2 0xDB3 DUP5 DUP3 DUP6 ADD PUSH2 0xCD8 JUMP JUMPDEST PUSH1 0xC0 DUP4 ADD MSTORE POP PUSH1 0xE0 PUSH2 0xDC7 DUP5 DUP3 DUP6 ADD PUSH2 0xB79 JUMP JUMPDEST PUSH1 0xE0 DUP4 ADD MSTORE POP PUSH2 0x100 PUSH2 0xDDC DUP5 DUP3 DUP6 ADD PUSH2 0xC7A JUMP JUMPDEST PUSH2 0x100 DUP4 ADD MSTORE POP PUSH2 0x120 DUP3 ADD MLOAD PUSH8 0xFFFFFFFFFFFFFFFF DUP2 GT ISZERO PUSH2 0xE02 JUMPI PUSH2 0xE01 PUSH2 0xB5F JUMP JUMPDEST JUMPDEST PUSH2 0xE0E DUP5 DUP3 DUP6 ADD PUSH2 0xC35 JUMP JUMPDEST PUSH2 0x120 DUP4 ADD MSTORE POP SWAP3 SWAP2 POP POP JUMP JUMPDEST PUSH1 0x0 PUSH1 0x20 DUP3 DUP5 SUB SLT ISZERO PUSH2 0xE31 JUMPI PUSH2 0xE30 PUSH2 0x879 JUMP JUMPDEST JUMPDEST PUSH1 0x0 DUP3 ADD MLOAD PUSH8 0xFFFFFFFFFFFFFFFF DUP2 GT ISZERO PUSH2 0xE4F JUMPI PUSH2 0xE4E PUSH2 0x87E JUMP JUMPDEST JUMPDEST PUSH2 0xE5B DUP5 DUP3 DUP6 ADD PUSH2 0xCED JUMP JUMPDEST SWAP2 POP POP SWAP3 SWAP2 POP POP JUMP JUMPDEST PUSH32 0x4E487B7100000000000000000000000000000000000000000000000000000000 PUSH1 0x0 MSTORE PUSH1 0x11 PUSH1 0x4 MSTORE PUSH1 0x24 PUSH1 0x0 REVERT JUMPDEST PUSH1 0x0 PUSH2 0xE9E DUP3 PUSH2 0x83B JUMP JUMPDEST SWAP2 POP PUSH32 0xFFFFFFFFFFFFFFFFFFFFFFFFFFFFFFFFFFFFFFFFFFFFFFFFFFFFFFFFFFFFFFFF DUP3 SUB PUSH2 0xED0 JUMPI PUSH2 0xECF PUSH2 0xE64 JUMP JUMPDEST JUMPDEST PUSH1 0x1 DUP3 ADD SWAP1 POP SWAP2 SWAP1 POP JUMP JUMPDEST PUSH32 0x4E487B7100000000000000000000000000000000000000000000000000000000 PUSH1 0x0 MSTORE PUSH1 0x21 PUSH1 0x4 MSTORE PUSH1 0x24 PUSH1 0x0 REVERT JUMPDEST PUSH1 0x0 PUSH2 0xF15 DUP3 PUSH2 0x83B JUMP JUMPDEST SWAP2 POP PUSH2 0xF20 DUP4 PUSH2 0x83B JUMP JUMPDEST SWAP3 POP DUP3 DUP3 SUB SWAP1 POP DUP2 DUP2 GT ISZERO PUSH2 0xF38 JUMPI PUSH2 0xF37 PUSH2 0xE64 JUMP JUMPDEST JUMPDEST SWAP3 SWAP2 POP POP JUMP JUMPDEST PUSH1 0x0 PUSH2 0xF49 DUP3 PUSH2 0x83B JUMP JUMPDEST SWAP2 POP PUSH2 0xF54 DUP4 PUSH2 0x83B JUMP JUMPDEST SWAP3 POP DUP3 DUP3 MUL PUSH2 0xF62 DUP2 PUSH2 0x83B JUMP JUMPDEST SWAP2 POP DUP3 DUP3 DIV DUP5 EQ DUP4 ISZERO OR PUSH2 0xF79 JUMPI PUSH2 0xF78 PUSH2 0xE64 JUMP JUMPDEST JUMPDEST POP SWAP3 SWAP2 POP POP JUMP JUMPDEST PUSH1 0x0 PUSH2 0xF8B DUP3 PUSH2 0x83B JUMP JUMPDEST SWAP2 POP PUSH2 0xF96 DUP4 PUSH2 0x83B JUMP JUMPDEST SWAP3 POP DUP3 DUP3 ADD SWAP1 POP DUP1 DUP3 GT ISZERO PUSH2 0xFAE JUMPI PUSH2 0xFAD PUSH2 0xE64 JUMP JUMPDEST JUMPDEST SWAP3 SWAP2 POP POP JUMP JUMPDEST PUSH32 0x4E487B7100000000000000000000000000000000000000000000000000000000 PUSH1 0x0 MSTORE PUSH1 0x12 PUSH1 0x4 MSTORE PUSH1 0x24 PUSH1 0x0 REVERT JUMPDEST PUSH1 0x0 PUSH2 0xFEE DUP3 PUSH2 0x83B JUMP JUMPDEST SWAP2 POP PUSH2 0xFF9 DUP4 PUSH2 0x83B JUMP JUMPDEST SWAP3 POP DUP3 PUSH2 0x1009 JUMPI PUSH2 0x1008 PUSH2 0xFB4 JUMP JUMPDEST JUMPDEST DUP3 DUP3 DIV SWAP1 POP SWAP3 SWAP2 POP POP JUMP JUMPDEST PUSH1 0x0 PUSH1 0x40 DUP3 ADD SWAP1 POP PUSH2 0x1029 PUSH1 0x0 DUP4 ADD DUP6 PUSH2 0x845 JUMP JUMPDEST PUSH2 0x1036 PUSH1 0x20 DUP4 ADD DUP5 PUSH2 0x845 JUMP JUMPDEST SWAP4 SWAP3 POP POP POP JUMP INVALID LOG2 PUSH5 0x6970667358 0x22 SLT KECCAK256 0x2B EXTCODESIZE 0xA7 PUSH10 0xF48B4F3AD244EC5A45BA 0x4B COINBASE 0xFC DUP8 0x4C 0x1F SLOAD 0xA7 XOR 0xE8 0xCF SWAP1 DUP9 SLOAD SUB SLOAD 0xD0 SMOD PUSH5 0x736F6C6343 STOP ADDMOD EQ STOP CALLER "},"methodIdentifiers":{"AGE_WEIGHT()":"5f14a354","CONSISTENCY_WEIGHT()":"1b98dd0f","PENALTY_WEIGHT()":"89facacf","VOLUME_WEIGHT()":"ede53540","attestationContract()":"87be6d4e","getFullReputation(address)":"26ee7f56","reputationData(address)":"a8769305","reputationScore(address)":"50d061cb","updateReputation(address,bytes32)":"89b3dd06"}}}}}