{
  "_format": "hh-sol-artifact-1",
  "contractName": "AnnaReputation",
  "sourceName": "contracts/AnnaReputation.sol",
  "abi": [
    {
      "inputs": [
        {
          "internalType": "address",
          "name": "_attestationContract",
          "type": "address"
        }
      ],
      "stateMutability": "nonpayable",
      "type": "constructor"
    },
    {
      "anonymous": false,
      "inputs": [
        {
          "indexed": true,
          "internalType": "address",
          "name": "agent",
          "type": "address"
        },
        {
          "indexed": false,
          "internalType": "uint256",
          "name": "newScore",
          "type": "uint256"
        },
        {
          "indexed": false,
          "internalType": "uint256",
          "name": "timestamp",
          "type": "uint256"
        }
      ],
      "name": "ReputationUpdated",
      "type": "event"
    },
    {
      "inputs": [],
      "name": "AGE_WEIGHT",
      "outputs": [
        {
          "internalType": "uint256",
          "name": "",
          "type": "uint256"
        }
      ],
      "stateMutability": "view",
      "type": "function"
    },
    {
      "inputs": [],
      "name": "CONSISTENCY_WEIGHT",
      "outputs": [
        {
          "internalType": "uint256",
          "name": "",
          "type": "uint256"
        }
      ],
      "stateMutability": "view",
      "type": "function"
    },
    {
      "inputs": [],
      "name": "PENALTY_WEIGHT",
      "outputs": [
        {
          "internalType": "uint256",
          "name": "",
          "type": "uint256"
        }
      ],
      "stateMutability": "view",
      "type": "function"
    },
    {
      "inputs": [],
      "name": "VOLUME_WEIGHT",
      "outputs": [
        {
          "internalType": "uint256",
          "name": "",
          "type": "uint256"
        }
      ],
      "stateMutability": "view",
      "type": "function"
    },
    {
      "inputs": [],
      "name": "attestationContract",
      "outputs": [
        {
          "internalType": "contract AnnaAttestation",
          "name": "",
          "type": "address"
        }
      ],
      "stateMutability": "view",
      "type": "function"
    },
    {
      "inputs": [
        {
          "internalType": "address",
          "name": "agent",
          "type": "address"
        }
      ],
      "name": "getFullReputation",
      "outputs": [
        {
          "internalType": "uint256",
          "name": "score",
          "type": "uint256"
        },
        {
          "internalType": "uint256",
          "name": "totalAttestations",
          "type": "uint256"
        },
        {
          "internalType": "uint256",
          "name": "verifiedAttestations",
          "type": "uint256"
        },
        {
          "internalType": "uint256",
          "name": "averageConsistency",
          "type": "uint256"
        }
      ],
      "stateMutability": "view",
      "type": "function"
    },
    {
      "inputs": [
        {
          "internalType": "address",
          "name": "",
          "type": "address"
        }
      ],
      "name": "reputationData",
      "outputs": [
        {
          "internalType": "uint256",
          "name": "totalAttestations",
          "type": "uint256"
        },
        {
          "internalType": "uint256",
          "name": "verifiedAttestations",
          "type": "uint256"
        },
        {
          "internalType": "uint256",
          "name": "rejectedAttestations",
          "type": "uint256"
        },
        {
          "internalType": "uint256",
          "name": "averageConsistencyScore",
          "type": "uint256"
        },
        {
          "internalType": "uint256",
          "name": "registrationTime",
          "type": "uint256"
        },
        {
          "internalType": "uint256",
          "name": "lastUpdateTime",
          "type": "uint256"
        }
      ],
      "stateMutability": "view",
      "type": "function"
    },
    {
      "inputs": [
        {
          "internalType": "address",
          "name": "",
          "type": "address"
        }
      ],
      "name": "reputationScore",
      "outputs": [
        {
          "internalType": "uint256",
          "name": "",
          "type": "uint256"
        }
      ],
      "stateMutability": "view",
      "type": "function"
    },
    {
      "inputs": [
        {
          "internalType": "address",
          "name": "agent",
          "type": "address"
        },
        {
          "internalType": "bytes32",
          "name": "attestationId",
          "type": "bytes32"
        }
      ],
      "name": "updateReputation",
      "outputs": [],
      "stateMutability": "nonpayable",
      "type": "function"
    }
  ],
  "bytecode": "0x60806040523480156200001157600080fd5b506040516200119d3803806200119d8339818101604052810190620000379190620000e8565b806000806101000a81548173ffffffffffffffffffffffffffffffffffffffff021916908373ffffffffffffffffffffffffffffffffffffffff160217905550506200011a565b600080fd5b600073ffffffffffffffffffffffffffffffffffffffff82169050919050565b6000620000b08262000083565b9050919050565b620000c281620000a3565b8114620000ce57600080fd5b50565b600081519050620000e281620000b7565b92915050565b6000602082840312156200010157620001006200007e565b5b60006200011184828501620000d1565b91505092915050565b611073806200012a6000396000f3fe608060405234801561001057600080fd5b50600436106100935760003560e01c806387be6d4e1161006657806387be6d4e1461013757806389b3dd061461015557806389facacf14610171578063a87693051461018f578063ede53540146101c457610093565b80631b98dd0f1461009857806326ee7f56146100b657806350d061cb146100e95780635f14a35414610119575b600080fd5b6100a06101e2565b6040516100ad9190610854565b60405180910390f35b6100d060048036038101906100cb91906108e1565b6101e8565b6040516100e0949392919061090e565b60405180910390f35b61010360048036038101906100fe91906108e1565b6102d7565b6040516101109190610854565b60405180910390f35b6101216102ef565b60405161012e9190610854565b60405180910390f35b61013f6102f4565b60405161014c91906109b2565b60405180910390f35b61016f600480360381019061016a9190610a03565b610318565b005b6101796105ca565b6040516101869190610854565b60405180910390f35b6101a960048036038101906101a491906108e1565b6105d0565b6040516101bb96959493929190610a43565b60405180910390f35b6101cc61060c565b6040516101d99190610854565b60405180910390f35b61019081565b6000806000806000600160008773ffffffffffffffffffffffffffffffffffffffff1673ffffffffffffffffffffffffffffffffffffffff1681526020019081526020016000206040518060c001604052908160008201548152602001600182015481526020016002820154815260200160038201548152602001600482015481526020016005820154815250509050600260008773ffffffffffffffffffffffffffffffffffffffff1673ffffffffffffffffffffffffffffffffffffffff168152602001908152602001600020548160000151826020015183606001519450945094509450509193509193565b60026020528060005260406000206000915090505481565b609681565b60008054906101000a900473ffffffffffffffffffffffffffffffffffffffff1681565b60008060009054906101000a900473ffffffffffffffffffffffffffffffffffffffff1673ffffffffffffffffffffffffffffffffffffffff1663a3112a64836040518263ffffffff1660e01b81526004016103749190610ab3565b600060405180830381865afa158015610391573d6000803e3d6000fd5b505050506040513d6000823e3d601f19601f820116820180604052508101906103ba9190610e1b565b90506000600160008573ffffffffffffffffffffffffffffffffffffffff1673ffffffffffffffffffffffffffffffffffffffff16815260200190815260200160002090506000816004015403610415574281600401819055505b80600001600081548092919061042a90610e93565b91905055506001600381111561044357610442610edb565b5b8260a00151600381111561045a57610459610edb565b5b036104cd5780600101600081548092919061047490610e93565b919050555060006001826001015461048c9190610f0a565b826003015461049b9190610f3e565b905081600101548360c0015160ff16826104b59190610f80565b6104bf9190610fe3565b826003018190555050610519565b600260038111156104e1576104e0610edb565b5b8260a0015160038111156104f8576104f7610edb565b5b036105185780600201600081548092919061051290610e93565b91905055505b5b428160050181905550600061052d85610612565b905080600260008773ffffffffffffffffffffffffffffffffffffffff1673ffffffffffffffffffffffffffffffffffffffff168152602001908152602001600020819055508473ffffffffffffffffffffffffffffffffffffffff167f5b88a2e3fc1a53234357ab78c104df11c33ccfa79886793654565ad70b8afb6e82426040516105bb929190611014565b60405180910390a25050505050565b6101f481565b60016020528060005260406000206000915090508060000154908060010154908060020154908060030154908060040154908060050154905086565b61012c81565b600080600160008473ffffffffffffffffffffffffffffffffffffffff1673ffffffffffffffffffffffffffffffffffffffff1681526020019081526020016000206040518060c00160405290816000820154815260200160018201548152602001600282015481526020016003820154815260200160048201548152602001600582015481525050905060008160000151036106b3576000915050610802565b6000600a6106d0600184602001516106cb9190610f80565b610807565b6106da9190610f3e565b905060648111156106ea57606490505b6000826060015190506000620151808460800151426107099190610f0a565b6107139190610fe3565b9050600061016d821161073f5761016d6064836107309190610f3e565b61073a9190610fe3565b610742565b60645b90506000600a86604001516107579190610f3e565b905060006103e860968461076b9190610f3e565b610190876107799190610f3e565b61012c896107879190610f3e565b6107919190610f80565b61079b9190610f80565b6107a59190610fe3565b905060006103e86101f4846107ba9190610f3e565b6107c49190610fe3565b9050808211156107f557600a81836107dc9190610f0a565b6107e69190610f3e565b98505050505050505050610802565b6000985050505050505050505b919050565b600080600090505b600183111561083257600183901c9250808061082a90610e93565b91505061080f565b80915050919050565b6000819050919050565b61084e8161083b565b82525050565b60006020820190506108696000830184610845565b92915050565b6000604051905090565b600080fd5b600080fd5b600073ffffffffffffffffffffffffffffffffffffffff82169050919050565b60006108ae82610883565b9050919050565b6108be816108a3565b81146108c957600080fd5b50565b6000813590506108db816108b5565b92915050565b6000602082840312156108f7576108f6610879565b5b6000610905848285016108cc565b91505092915050565b60006080820190506109236000830187610845565b6109306020830186610845565b61093d6040830185610845565b61094a6060830184610845565b95945050505050565b6000819050919050565b600061097861097361096e84610883565b610953565b610883565b9050919050565b600061098a8261095d565b9050919050565b600061099c8261097f565b9050919050565b6109ac81610991565b82525050565b60006020820190506109c760008301846109a3565b92915050565b6000819050919050565b6109e0816109cd565b81146109eb57600080fd5b50565b6000813590506109fd816109d7565b92915050565b60008060408385031215610a1a57610a19610879565b5b6000610a28858286016108cc565b9250506020610a39858286016109ee565b9150509250929050565b600060c082019050610a586000830189610845565b610a656020830188610845565b610a726040830187610845565b610a7f6060830186610845565b610a8c6080830185610845565b610a9960a0830184610845565b979650505050505050565b610aad816109cd565b82525050565b6000602082019050610ac86000830184610aa4565b92915050565b600080fd5b6000601f19601f8301169050919050565b7f4e487b7100000000000000000000000000000000000000000000000000000000600052604160045260246000fd5b610b1c82610ad3565b810181811067ffffffffffffffff82111715610b3b57610b3a610ae4565b5b80604052505050565b6000610b4e61086f565b9050610b5a8282610b13565b919050565b600080fd5b600081519050610b73816109d7565b92915050565b600081519050610b88816108b5565b92915050565b600080fd5b600080fd5b600067ffffffffffffffff821115610bb357610bb2610ae4565b5b610bbc82610ad3565b9050602081019050919050565b60005b83811015610be7578082015181840152602081019050610bcc565b60008484015250505050565b6000610c06610c0184610b98565b610b44565b905082815260208101848484011115610c2257610c21610b93565b5b610c2d848285610bc9565b509392505050565b600082601f830112610c4a57610c49610b8e565b5b8151610c5a848260208601610bf3565b91505092915050565b610c6c8161083b565b8114610c7757600080fd5b50565b600081519050610c8981610c63565b92915050565b60048110610c9c57600080fd5b50565b600081519050610cae81610c8f565b92915050565b600060ff82169050919050565b610cca81610cb4565b8114610cd557600080fd5b50565b600081519050610ce781610cc1565b92915050565b60006101408284031215610d0457610d03610ace565b5b610d0f610140610b44565b90506000610d1f84828501610b64565b6000830152506020610d3384828501610b64565b6020830152506040610d4784828501610b79565b604083015250606082015167ffffffffffffffff811115610d6b57610d6a610b5f565b5b610d7784828501610c35565b6060830152506080610d8b84828501610c7a565b60808301525060a0610d9f84828501610c9f565b60a08301525060c0610db384828501610cd8565b60c08301525060e0610dc784828501610b79565b60e083015250610100610ddc84828501610c7a565b6101008301525061012082015167ffffffffffffffff811115610e0257610e01610b5f565b5b610e0e84828501610c35565b6101208301525092915050565b600060208284031215610e3157610e30610879565b5b600082015167ffffffffffffffff811115610e4f57610e4e61087e565b5b610e5b84828501610ced565b91505092915050565b7f4e487b7100000000000000000000000000000000000000000000000000000000600052601160045260246000fd5b6000610e9e8261083b565b91507fffffffffffffffffffffffffffffffffffffffffffffffffffffffffffffffff8203610ed057610ecf610e64565b5b600182019050919050565b7f4e487b7100000000000000000000000000000000000000000000000000000000600052602160045260246000fd5b6000610f158261083b565b9150610f208361083b565b9250828203905081811115610f3857610f37610e64565b5b92915050565b6000610f498261083b565b9150610f548361083b565b9250828202610f628161083b565b91508282048414831517610f7957610f78610e64565b5b5092915050565b6000610f8b8261083b565b9150610f968361083b565b9250828201905080821115610fae57610fad610e64565b5b92915050565b7f4e487b7100000000000000000000000000000000000000000000000000000000600052601260045260246000fd5b6000610fee8261083b565b9150610ff98361083b565b92508261100957611008610fb4565b5b828204905092915050565b60006040820190506110296000830185610845565b6110366020830184610845565b939250505056fea26469706673582212209817a3363dfc085f9065c10634053010430b9b22624da834b4d24e31b70beb3364736f6c63430008140033",
  "linkReferences": {},
  "deployedLinkReferences": {}
}