{
  "_format": "hh-sol-artifact-1",
  "contractName": "AnnaIdentity",
  "sourceName": "contracts/AnnaIdentity.sol",
  "abi": [
    {
      "inputs": [],
      "stateMutability": "nonpayable",
      "type": "constructor"
    },
    {
      "inputs": [
        {
          "internalType": "address",
          "name": "sender",
          "type": "address"
        },
        {
          "internalType": "uint256",
          "name": "tokenId",
          "type": "uint256"
        },
        {
          "internalType": "address",
          "name": "owner",
          "type": "address"
        }
      ],
      "name": "ERC721IncorrectOwner",
      "type": "error"
    },
    {
      "inputs": [
        {
          "internalType": "address",
          "name": "operator",
          "type": "address"
        },
        {
          "internalType": "uint256",
          "name": "tokenId",
          "type": "uint256"
        }
      ],
      "name": "ERC721InsufficientApproval",
      "type": "error"
    },
    {
      "inputs": [
        {
          "internalType": "address",
          "name": "approver",
          "type": "address"
        }
      ],
      "name": "ERC721InvalidApprover",
      "type": "error"
    },
    {
      "inputs": [
        {
          "internalType": "address",
          "name": "operator",
          "type": "address"
        }
      ],
      "name": "ERC721InvalidOperator",
      "type": "error"
    },
    {
      "inputs": [
        {
          "internalType": "address",
          "name": "owner",
          "type": "address"
        }
      ],
      "name": "ERC721InvalidOwner",
      "type": "error"
    },
    {
      "inputs": [
        {
          "internalType": "address",
          "name": "receiver",
          "type": "address"
        }
      ],
      "name": "ERC721InvalidReceiver",
      "type": "error"
    },
    {
      "inputs": [
        {
          "internalType": "address",
          "name": "sender",
          "type": "address"
        }
      ],
      "name": "ERC721InvalidSender",
      "type": "error"
    },
    {
      "inputs": [
        {
          "internalType": "uint256",
          "name": "tokenId",
          "type": "uint256"
        }
      ],
      "name": "ERC721NonexistentToken",
      "type": "error"
    },
    {
      "inputs": [
        {
          "internalType": "address",
          "name": "owner",
          "type": "address"
        }
      ],
      "name": "OwnableInvalidOwner",
      "type": "error"
    },
    {
      "inputs": [
        {
          "internalType": "address",
          "name": "account",
          "type": "address"
        }
      ],
      "name": "OwnableUnauthorizedAccount",
      "type": "error"
    },
    {
      "anonymous": false,
      "inputs": [
        {
          "indexed": true,
          "internalType": "uint256",
          "name": "tokenId",
          "type": "uint256"
        }
      ],
      "name": "AgentDeactivated",
      "type": "event"
    },
    {
      "anonymous": false,
      "inputs": [
        {
          "indexed": true,
          "internalType": "uint256",
          "name": "tokenId",
          "type": "uint256"
        }
      ],
      "name": "AgentReactivated",
      "type": "event"
    },
    {
      "anonymous": false,
      "inputs": [
        {
          "indexed": true,
          "internalType": "uint256",
          "name": "tokenId",
          "type": "uint256"
        },
        {
          "indexed": true,
          "internalType": "address",
          "name": "agentAddress",
          "type": "address"
        },
        {
          "indexed": false,
          "internalType": "string",
          "name": "did",
          "type": "string"
        }
      ],
      "name": "AgentRegistered",
      "type": "event"
    },
    {
      "anonymous": false,
      "inputs": [
        {
          "indexed": true,
          "internalType": "address",
          "name": "owner",
          "type": "address"
        },
        {
          "indexed": true,
          "internalType": "address",
          "name": "approved",
          "type": "address"
        },
        {
          "indexed": true,
          "internalType": "uint256",
          "name": "tokenId",
          "type": "uint256"
        }
      ],
      "name": "Approval",
      "type": "event"
    },
    {
      "anonymous": false,
      "inputs": [
        {
          "indexed": true,
          "internalType": "address",
          "name": "owner",
          "type": "address"
        },
        {
          "indexed": true,
          "internalType": "address",
          "name": "operator",
          "type": "address"
        },
        {
          "indexed": false,
          "internalType": "bool",
          "name": "approved",
          "type": "bool"
        }
      ],
      "name": "ApprovalForAll",
      "type": "event"
    },
    {
      "anonymous": false,
      "inputs": [
        {
          "indexed": true,
          "internalType": "address",
          "name": "previousOwner",
          "type": "address"
        },
        {
          "indexed": true,
          "internalType": "address",
          "name": "newOwner",
          "type": "address"
        }
      ],
      "name": "OwnershipTransferred",
      "type": "event"
    },
    {
      "anonymous": false,
      "inputs": [
        {
          "indexed": true,
          "internalType": "address",
          "name": "from",
          "type": "address"
        },
        {
          "indexed": true,
          "internalType": "address",
          "name": "to",
          "type": "address"
        },
        {
          "indexed": true,
          "internalType": "uint256",
          "name": "tokenId",
          "type": "uint256"
        }
      ],
      "name": "Transfer",
      "type": "event"
    },
    {
      "inputs": [
        {
          "internalType": "address",
          "name": "",
          "type": "address"
        }
      ],
      "name": "agentIdByAddress",
      "outputs": [
        {
          "internalType": "uint256",
          "name": "",
          "type": "uint256"
        }
      ],
      "stateMutability": "view",
      "type": "function"
    },
    {
      "inputs": [
        {
          "internalType": "uint256",
          "name": "",
          "type": "uint256"
        }
      ],
      "name": "agentMetadata",
      "outputs": [
        {
          "internalType": "string",
          "name": "did",
          "type": "string"
        },
        {
          "internalType": "string",
          "name": "modelType",
          "type": "string"
        },
        {
          "internalType": "string",
          "name": "modelVersion",
          "type": "string"
        },
        {
          "internalType": "address",
          "name": "operator",
          "type": "address"
        },
        {
          "internalType": "uint256",
          "name": "registrationDate",
          "type": "uint256"
        },
        {
          "internalType": "bool",
          "name": "isActive",
          "type": "bool"
        }
      ],
      "stateMutability": "view",
      "type": "function"
    },
    {
      "inputs": [
        {
          "internalType": "address",
          "name": "to",
          "type": "address"
        },
        {
          "internalType": "uint256",
          "name": "tokenId",
          "type": "uint256"
        }
      ],
      "name": "approve",
      "outputs": [],
      "stateMutability": "nonpayable",
      "type": "function"
    },
    {
      "inputs": [
        {
          "internalType": "address",
          "name": "owner",
          "type": "address"
        }
      ],
      "name": "balanceOf",
      "outputs": [
        {
          "internalType": "uint256",
          "name": "",
          "type": "uint256"
        }
      ],
      "stateMutability": "view",
      "type": "function"
    },
    {
      "inputs": [
        {
          "internalType": "uint256",
          "name": "tokenId",
          "type": "uint256"
        }
      ],
      "name": "deactivateAgent",
      "outputs": [],
      "stateMutability": "nonpayable",
      "type": "function"
    },
    {
      "inputs": [
        {
          "internalType": "uint256",
          "name": "tokenId",
          "type": "uint256"
        }
      ],
      "name": "getAgentMetadata",
      "outputs": [
        {
          "components": [
            {
              "internalType": "string",
              "name": "did",
              "type": "string"
            },
            {
              "internalType": "string",
              "name": "modelType",
              "type": "string"
            },
            {
              "internalType": "string",
              "name": "modelVersion",
              "type": "string"
            },
            {
              "internalType": "address",
              "name": "operator",
              "type": "address"
            },
            {
              "internalType": "string[]",
              "name": "specializations",
              "type": "string[]"
            },
            {
              "internalType": "uint256",
              "name": "registrationDate",
              "type": "uint256"
            },
            {
              "internalType": "bool",
              "name": "isActive",
              "type": "bool"
            }
          ],
          "internalType": "struct AnnaIdentity.AgentMetadata",
          "name": "",
          "type": "tuple"
        }
      ],
      "stateMutability": "view",
      "type": "function"
    },
    {
      "inputs": [
        {
          "internalType": "uint256",
          "name": "tokenId",
          "type": "uint256"
        }
      ],
      "name": "getApproved",
      "outputs": [
        {
          "internalType": "address",
          "name": "",
          "type": "address"
        }
      ],
      "stateMutability": "view",
      "type": "function"
    },
    {
      "inputs": [
        {
          "internalType": "address",
          "name": "owner",
          "type": "address"
        },
        {
          "internalType": "address",
          "name": "operator",
          "type": "address"
        }
      ],
      "name": "isApprovedForAll",
      "outputs": [
        {
          "internalType": "bool",
          "name": "",
          "type": "bool"
        }
      ],
      "stateMutability": "view",
      "type": "function"
    },
    {
      "inputs": [],
      "name": "name",
      "outputs": [
        {
          "internalType": "string",
          "name": "",
          "type": "string"
        }
      ],
      "stateMutability": "view",
      "type": "function"
    },
    {
      "inputs": [],
      "name": "owner",
      "outputs": [
        {
          "internalType": "address",
          "name": "",
          "type": "address"
        }
      ],
      "stateMutability": "view",
      "type": "function"
    },
    {
      "inputs": [
        {
          "internalType": "uint256",
          "name": "tokenId",
          "type": "uint256"
        }
      ],
      "name": "ownerOf",
      "outputs": [
        {
          "internalType": "address",
          "name": "",
          "type": "address"
        }
      ],
      "stateMutability": "view",
      "type": "function"
    },
    {
      "inputs": [
        {
          "internalType": "uint256",
          "name": "tokenId",
          "type": "uint256"
        }
      ],
      "name": "reactivateAgent",
      "outputs": [],
      "stateMutability": "nonpayable",
      "type": "function"
    },
    {
      "inputs": [
        {
          "internalType": "address",
          "name": "agentAddress",
          "type": "address"
        },
        {
          "internalType": "string",
          "name": "did",
          "type": "string"
        },
        {
          "internalType": "string",
          "name": "modelType",
          "type": "string"
        },
        {
          "internalType": "string",
          "name": "modelVersion",
          "type": "string"
        },
        {
          "internalType": "string[]",
          "name": "specializations",
          "type": "string[]"
        }
      ],
      "name": "registerAgent",
      "outputs": [
        {
          "internalType": "uint256",
          "name": "",
          "type": "uint256"
        }
      ],
      "stateMutability": "nonpayable",
      "type": "function"
    },
    {
      "inputs": [],
      "name": "renounceOwnership",
      "outputs": [],
      "stateMutability": "nonpayable",
      "type": "function"
    },
    {
      "inputs": [
        {
          "internalType": "address",
          "name": "from",
          "type": "address"
        },
        {
          "internalType": "address",
          "name": "to",
          "type": "address"
        },
        {
          "internalType": "uint256",
          "name": "tokenId",
          "type": "uint256"
        }
      ],
      "name": "safeTransferFrom",
      "outputs": [],
      "stateMutability": "nonpayable",
      "type": "function"
    },
    {
      "inputs": [
        {
          "internalType": "address",
          "name": "from",
          "type": "address"
        },
        {
          "internalType": "address",
          "name": "to",
          "type": "address"
        },
        {
          "internalType": "uint256",
          "name": "tokenId",
          "type": "uint256"
        },
        {
          "internalType": "bytes",
          "name": "data",
          "type": "bytes"
        }
      ],
      "name": "safeTransferFrom",
      "outputs": [],
      "stateMutability": "nonpayable",
      "type": "function"
    },
    {
      "inputs": [
        {
          "internalType": "address",
          "name": "operator",
          "type": "address"
        },
        {
          "internalType": "bool",
          "name": "approved",
          "type": "bool"
        }
      ],
      "name": "setApprovalForAll",
      "outputs": [],
      "stateMutability": "nonpayable",
      "type": "function"
    },
    {
      "inputs": [
        {
          "internalType": "bytes4",
          "name": "interfaceId",
          "type": "bytes4"
        }
      ],
      "name": "supportsInterface",
      "outputs": [
        {
          "internalType": "bool",
          "name": "",
          "type": "bool"
        }
      ],
      "stateMutability": "view",
      "type": "function"
    },
    {
      "inputs": [],
      "name": "symbol",
      "outputs": [
        {
          "internalType": "string",
          "name": "",
          "type": "string"
        }
      ],
      "stateMutability": "view",
      "type": "function"
    },
    {
      "inputs": [
        {
          "internalType": "uint256",
          "name": "tokenId",
          "type": "uint256"
        }
      ],
      "name": "tokenURI",
      "outputs": [
        {
          "internalType": "string",
          "name": "",
          "type": "string"
        }
      ],
      "stateMutability": "view",
      "type": "function"
    },
    {
      "inputs": [],
      "name": "totalAgents",
      "outputs": [
        {
          "internalType": "uint256",
          "name": "",
          "type": "uint256"
        }
      ],
      "stateMutability": "view",
      "type": "function"
    },
    {
      "inputs": [
        {
          "internalType": "address",
          "name": "from",
          "type": "address"
        },
        {
          "internalType": "address",
          "name": "to",
          "type": "address"
        },
        {
          "internalType": "uint256",
          "name": "tokenId",
          "type": "uint256"
        }
      ],
      "name": "transferFrom",
      "outputs": [],
      "stateMutability": "nonpayable",
      "type": "function"
    },
    {
      "inputs": [
        {
          "internalType": "address",
          "name": "newOwner",
          "type": "address"
        }
      ],
      "name": "transferOwnership",
      "outputs": [],
      "stateMutability": "nonpayable",
      "type": "function"
    }
  ],
  "bytecode": "0x60806040523480156200001157600080fd5b50336040518060400160405280601381526020017f414e4e41204167656e74204964656e74697479000000000000000000000000008152506040518060400160405280600781526020017f414e4e412d494400000000000000000000000000000000000000000000000000815250816000908162000090919062000472565b508060019081620000a2919062000472565b505050600073ffffffffffffffffffffffffffffffffffffffff168173ffffffffffffffffffffffffffffffffffffffff16036200011a5760006040517f1e4fbdf70000000000000000000000000000000000000000000000000000000081526004016200011191906200059e565b60405180910390fd5b6200012b816200013260201b60201c565b50620005bb565b6000600660009054906101000a900473ffffffffffffffffffffffffffffffffffffffff16905081600660006101000a81548173ffffffffffffffffffffffffffffffffffffffff021916908373ffffffffffffffffffffffffffffffffffffffff1602179055508173ffffffffffffffffffffffffffffffffffffffff168173ffffffffffffffffffffffffffffffffffffffff167f8be0079c531659141344cd1fd0a4f28419497f9722a3daafe3b4186f6b6457e060405160405180910390a35050565b600081519050919050565b7f4e487b7100000000000000000000000000000000000000000000000000000000600052604160045260246000fd5b7f4e487b7100000000000000000000000000000000000000000000000000000000600052602260045260246000fd5b600060028204905060018216806200027a57607f821691505b60208210810362000290576200028f62000232565b5b50919050565b60008190508160005260206000209050919050565b60006020601f8301049050919050565b600082821b905092915050565b600060088302620002fa7fffffffffffffffffffffffffffffffffffffffffffffffffffffffffffffffff82620002bb565b620003068683620002bb565b95508019841693508086168417925050509392505050565b6000819050919050565b6000819050919050565b6000620003536200034d62000347846200031e565b62000328565b6200031e565b9050919050565b6000819050919050565b6200036f8362000332565b620003876200037e826200035a565b848454620002c8565b825550505050565b600090565b6200039e6200038f565b620003ab81848462000364565b505050565b5b81811015620003d357620003c760008262000394565b600181019050620003b1565b5050565b601f8211156200042257620003ec8162000296565b620003f784620002ab565b8101602085101562000407578190505b6200041f6200041685620002ab565b830182620003b0565b50505b505050565b600082821c905092915050565b6000620004476000198460080262000427565b1980831691505092915050565b600062000462838362000434565b9150826002028217905092915050565b6200047d82620001f8565b67ffffffffffffffff81111562000499576200049862000203565b5b620004a5825462000261565b620004b2828285620003d7565b600060209050601f831160018114620004ea5760008415620004d5578287015190505b620004e1858262000454565b86555062000551565b601f198416620004fa8662000296565b60005b828110156200052457848901518255600182019150602085019450602081019050620004fd565b8683101562000544578489015162000540601f89168262000434565b8355505b6001600288020188555050505b505050505050565b600073ffffffffffffffffffffffffffffffffffffffff82169050919050565b6000620005868262000559565b9050919050565b620005988162000579565b82525050565b6000602082019050620005b560008301846200058d565b92915050565b61379f80620005cb6000396000f3fe608060405234801561001057600080fd5b506004361061014d5760003560e01c8063715018a6116100c3578063b88d4fde1161007c578063b88d4fde146103c7578063c5053712146103e3578063c87b56dd14610401578063e985e9c514610431578063f2fde38b14610461578063fd6103171461047d5761014d565b8063715018a61461030557806379ce7ac11461030f5780638da5cb5b1461033f57806395d89b411461035d5780639aafa7a71461037b578063a22cb465146103ab5761014d565b806323b872dd1161011557806323b872dd1461020857806342842e0e1461022457806347a95efb1461024057806359295330146102755780636352211e146102a557806370a08231146102d55761014d565b806301ffc9a71461015257806306fdde0314610182578063081812fc146101a0578063095ea7b3146101d057806311ba6b4a146101ec575b600080fd5b61016c60048036038101906101679190612650565b610499565b6040516101799190612698565b60405180910390f35b61018a61057b565b6040516101979190612743565b60405180910390f35b6101ba60048036038101906101b5919061279b565b61060d565b6040516101c79190612809565b60405180910390f35b6101ea60048036038101906101e59190612850565b610629565b005b6102066004803603810190610201919061279b565b61063f565b005b610222600480360381019061021d9190612890565b610751565b005b61023e60048036038101906102399190612890565b610853565b005b61025a6004803603810190610255919061279b565b610873565b60405161026c969594939291906128f2565b60405180910390f35b61028f600480360381019061028a919061279b565b610a74565b60405161029c9190612b52565b60405180910390f35b6102bf60048036038101906102ba919061279b565b610e22565b6040516102cc9190612809565b60405180910390f35b6102ef60048036038101906102ea9190612b74565b610e34565b6040516102fc9190612ba1565b60405180910390f35b61030d610eee565b005b61032960048036038101906103249190612b74565b610f02565b6040516103369190612ba1565b60405180910390f35b610347610f1a565b6040516103549190612809565b60405180910390f35b610365610f44565b6040516103729190612743565b60405180910390f35b61039560048036038101906103909190612dd7565b610fd6565b6040516103a29190612ba1565b60405180910390f35b6103c560048036038101906103c09190612eee565b61124e565b005b6103e160048036038101906103dc9190612fcf565b611264565b005b6103eb611281565b6040516103f89190612ba1565b60405180910390f35b61041b6004803603810190610416919061279b565b61128b565b6040516104289190612743565b60405180910390f35b61044b60048036038101906104469190613052565b6112f4565b6040516104589190612698565b60405180910390f35b61047b60048036038101906104769190612b74565b611388565b005b6104976004803603810190610492919061279b565b61140e565b005b60007f80ac58cd000000000000000000000000000000000000000000000000000000007bffffffffffffffffffffffffffffffffffffffffffffffffffffffff1916827bffffffffffffffffffffffffffffffffffffffffffffffffffffffff1916148061056457507f5b5e139f000000000000000000000000000000000000000000000000000000007bffffffffffffffffffffffffffffffffffffffffffffffffffffffff1916827bffffffffffffffffffffffffffffffffffffffffffffffffffffffff1916145b80610574575061057382611520565b5b9050919050565b60606000805461058a906130c1565b80601f01602080910402602001604051908101604052809291908181526020018280546105b6906130c1565b80156106035780601f106105d857610100808354040283529160200191610603565b820191906000526020600020905b8154815290600101906020018083116105e657829003601f168201915b5050505050905090565b60006106188261158a565b5061062282611612565b9050919050565b61063b828261063661164f565b611657565b5050565b3373ffffffffffffffffffffffffffffffffffffffff1661065f82610e22565b73ffffffffffffffffffffffffffffffffffffffff1614806106b357503373ffffffffffffffffffffffffffffffffffffffff1661069b610f1a565b73ffffffffffffffffffffffffffffffffffffffff16145b6106f2576040517f08c379a00000000000000000000000000000000000000000000000000000000081526004016106e99061313e565b60405180910390fd5b60006008600083815260200190815260200160002060060160006101000a81548160ff021916908315150217905550807fc2fb7f8575ac3990e70361684edfc4d283931ea9a03dfa28766bf376a3934aa260405160405180910390a250565b600073ffffffffffffffffffffffffffffffffffffffff168273ffffffffffffffffffffffffffffffffffffffff16036107c35760006040517f64a0ae920000000000000000000000000000000000000000000000000000000081526004016107ba9190612809565b60405180910390fd5b60006107d783836107d261164f565b611669565b90508373ffffffffffffffffffffffffffffffffffffffff168173ffffffffffffffffffffffffffffffffffffffff161461084d578382826040517f64283d7b0000000000000000000000000000000000000000000000000000000081526004016108449392919061315e565b60405180910390fd5b50505050565b61086e83838360405180602001604052806000815250611264565b505050565b6008602052806000526040600020600091509050806000018054610896906130c1565b80601f01602080910402602001604051908101604052809291908181526020018280546108c2906130c1565b801561090f5780601f106108e45761010080835404028352916020019161090f565b820191906000526020600020905b8154815290600101906020018083116108f257829003601f168201915b505050505090806001018054610924906130c1565b80601f0160208091040260200160405190810160405280929190818152602001828054610950906130c1565b801561099d5780601f106109725761010080835404028352916020019161099d565b820191906000526020600020905b81548152906001019060200180831161098057829003601f168201915b5050505050908060020180546109b2906130c1565b80601f01602080910402602001604051908101604052809291908181526020018280546109de906130c1565b8015610a2b5780601f10610a0057610100808354040283529160200191610a2b565b820191906000526020600020905b815481529060010190602001808311610a0e57829003601f168201915b5050505050908060030160009054906101000a900473ffffffffffffffffffffffffffffffffffffffff16908060050154908060060160009054906101000a900460ff16905086565b610a7c6124b5565b600073ffffffffffffffffffffffffffffffffffffffff16610a9d83611736565b73ffffffffffffffffffffffffffffffffffffffff1603610af3576040517f08c379a0000000000000000000000000000000000000000000000000000000008152600401610aea906131e1565b60405180910390fd5b600860008381526020019081526020016000206040518060e0016040529081600082018054610b21906130c1565b80601f0160208091040260200160405190810160405280929190818152602001828054610b4d906130c1565b8015610b9a5780601f10610b6f57610100808354040283529160200191610b9a565b820191906000526020600020905b815481529060010190602001808311610b7d57829003601f168201915b50505050508152602001600182018054610bb3906130c1565b80601f0160208091040260200160405190810160405280929190818152602001828054610bdf906130c1565b8015610c2c5780601f10610c0157610100808354040283529160200191610c2c565b820191906000526020600020905b815481529060010190602001808311610c0f57829003601f168201915b50505050508152602001600282018054610c45906130c1565b80601f0160208091040260200160405190810160405280929190818152602001828054610c71906130c1565b8015610cbe5780601f10610c9357610100808354040283529160200191610cbe565b820191906000526020600020905b815481529060010190602001808311610ca157829003601f168201915b505050505081526020016003820160009054906101000a900473ffffffffffffffffffffffffffffffffffffffff1673ffffffffffffffffffffffffffffffffffffffff1673ffffffffffffffffffffffffffffffffffffffff16815260200160048201805480602002602001604051908101604052809291908181526020016000905b82821015610dee578382906000526020600020018054610d61906130c1565b80601f0160208091040260200160405190810160405280929190818152602001828054610d8d906130c1565b8015610dda5780601f10610daf57610100808354040283529160200191610dda565b820191906000526020600020905b815481529060010190602001808311610dbd57829003601f168201915b505050505081526020019060010190610d42565b505050508152602001600582015481526020016006820160009054906101000a900460ff1615151515815250509050919050565b6000610e2d8261158a565b9050919050565b60008073ffffffffffffffffffffffffffffffffffffffff168273ffffffffffffffffffffffffffffffffffffffff1603610ea75760006040517f89c62b64000000000000000000000000000000000000000000000000000000008152600401610e9e9190612809565b60405180910390fd5b600360008373ffffffffffffffffffffffffffffffffffffffff1673ffffffffffffffffffffffffffffffffffffffff168152602001908152602001600020549050919050565b610ef6611773565b610f0060006117fa565b565b60096020528060005260406000206000915090505481565b6000600660009054906101000a900473ffffffffffffffffffffffffffffffffffffffff16905090565b606060018054610f53906130c1565b80601f0160208091040260200160405190810160405280929190818152602001828054610f7f906130c1565b8015610fcc5780601f10610fa157610100808354040283529160200191610fcc565b820191906000526020600020905b815481529060010190602001808311610faf57829003601f168201915b5050505050905090565b600080600960008873ffffffffffffffffffffffffffffffffffffffff1673ffffffffffffffffffffffffffffffffffffffff1681526020019081526020016000205414611059576040517f08c379a00000000000000000000000000000000000000000000000000000000081526004016110509061324d565b60405180910390fd5b600060076000815461106a9061329c565b919050819055905061107c87826118c0565b6040518060e001604052808781526020018681526020018581526020013373ffffffffffffffffffffffffffffffffffffffff168152602001848152602001428152602001600115158152506008600083815260200190815260200160002060008201518160000190816110f09190613490565b5060208201518160010190816111069190613490565b50604082015181600201908161111c9190613490565b5060608201518160030160006101000a81548173ffffffffffffffffffffffffffffffffffffffff021916908373ffffffffffffffffffffffffffffffffffffffff160217905550608082015181600401908051906020019061118092919061250a565b5060a0820151816005015560c08201518160060160006101000a81548160ff02191690831515021790555090505080600960008973ffffffffffffffffffffffffffffffffffffffff1673ffffffffffffffffffffffffffffffffffffffff168152602001908152602001600020819055508673ffffffffffffffffffffffffffffffffffffffff16817f0d063c6022bff16d09991a9f91882ffa112f5fb2529136f65eb4c77bbd047e43886040516112399190612743565b60405180910390a38091505095945050505050565b61126061125961164f565b83836118de565b5050565b61126f848484610751565b61127b84848484611a4d565b50505050565b6000600754905090565b60606112968261158a565b5060006112a1611c04565b905060008151116112c157604051806020016040528060008152506112ec565b806112cb84611c1b565b6040516020016112dc92919061359e565b6040516020818303038152906040525b915050919050565b6000600560008473ffffffffffffffffffffffffffffffffffffffff1673ffffffffffffffffffffffffffffffffffffffff16815260200190815260200160002060008373ffffffffffffffffffffffffffffffffffffffff1673ffffffffffffffffffffffffffffffffffffffff16815260200190815260200160002060009054906101000a900460ff16905092915050565b611390611773565b600073ffffffffffffffffffffffffffffffffffffffff168173ffffffffffffffffffffffffffffffffffffffff16036114025760006040517f1e4fbdf70000000000000000000000000000000000000000000000000000000081526004016113f99190612809565b60405180910390fd5b61140b816117fa565b50565b3373ffffffffffffffffffffffffffffffffffffffff1661142e82610e22565b73ffffffffffffffffffffffffffffffffffffffff16148061148257503373ffffffffffffffffffffffffffffffffffffffff1661146a610f1a565b73ffffffffffffffffffffffffffffffffffffffff16145b6114c1576040517f08c379a00000000000000000000000000000000000000000000000000000000081526004016114b89061313e565b60405180910390fd5b60016008600083815260200190815260200160002060060160006101000a81548160ff021916908315150217905550807f7cce21c1f4552995dccace889e9ad45febf59c654d3fd1d7ab0457fa1439aa2c60405160405180910390a250565b60007f01ffc9a7000000000000000000000000000000000000000000000000000000007bffffffffffffffffffffffffffffffffffffffffffffffffffffffff1916827bffffffffffffffffffffffffffffffffffffffffffffffffffffffff1916149050919050565b60008061159683611736565b9050600073ffffffffffffffffffffffffffffffffffffffff168173ffffffffffffffffffffffffffffffffffffffff160361160957826040517f7e2732890000000000000000000000000000000000000000000000000000000081526004016116009190612ba1565b60405180910390fd5b80915050919050565b60006004600083815260200190815260200160002060009054906101000a900473ffffffffffffffffffffffffffffffffffffffff169050919050565b600033905090565b6116648383836001611ce9565b505050565b60008061167584611736565b9050600073ffffffffffffffffffffffffffffffffffffffff168173ffffffffffffffffffffffffffffffffffffffff16141580156116e15750600073ffffffffffffffffffffffffffffffffffffffff168573ffffffffffffffffffffffffffffffffffffffff1614155b15611721576040517f08c379a00000000000000000000000000000000000000000000000000000000081526004016117189061360e565b60405180910390fd5b61172c858585611eae565b9150509392505050565b60006002600083815260200190815260200160002060009054906101000a900473ffffffffffffffffffffffffffffffffffffffff169050919050565b61177b61164f565b73ffffffffffffffffffffffffffffffffffffffff16611799610f1a565b73ffffffffffffffffffffffffffffffffffffffff16146117f8576117bc61164f565b6040517f118cdaa70000000000000000000000000000000000000000000000000000000081526004016117ef9190612809565b60405180910390fd5b565b6000600660009054906101000a900473ffffffffffffffffffffffffffffffffffffffff16905081600660006101000a81548173ffffffffffffffffffffffffffffffffffffffff021916908373ffffffffffffffffffffffffffffffffffffffff1602179055508173ffffffffffffffffffffffffffffffffffffffff168173ffffffffffffffffffffffffffffffffffffffff167f8be0079c531659141344cd1fd0a4f28419497f9722a3daafe3b4186f6b6457e060405160405180910390a35050565b6118da8282604051806020016040528060008152506120c8565b5050565b600073ffffffffffffffffffffffffffffffffffffffff168273ffffffffffffffffffffffffffffffffffffffff160361194f57816040517f5b08ba180000000000000000000000000000000000000000000000000000000081526004016119469190612809565b60405180910390fd5b80600560008573ffffffffffffffffffffffffffffffffffffffff1673ffffffffffffffffffffffffffffffffffffffff16815260200190815260200160002060008473ffffffffffffffffffffffffffffffffffffffff1673ffffffffffffffffffffffffffffffffffffffff16815260200190815260200160002060006101000a81548160ff0219169083151502179055508173ffffffffffffffffffffffffffffffffffffffff168373ffffffffffffffffffffffffffffffffffffffff167f17307eab39ab6107e8899845ad3d59bd9653f200f220920489ca2b5937696c3183604051611a409190612698565b60405180910390a3505050565b60008373ffffffffffffffffffffffffffffffffffffffff163b1115611bfe578273ffffffffffffffffffffffffffffffffffffffff1663150b7a02611a9161164f565b8685856040518563ffffffff1660e01b8152600401611ab39493929190613683565b6020604051808303816000875af1925050508015611aef57506040513d601f19601f82011682018060405250810190611aec91906136e4565b60015b611b73573d8060008114611b1f576040519150601f19603f3d011682016040523d82523d6000602084013e611b24565b606091505b506000815103611b6b57836040517f64a0ae92000000000000000000000000000000000000000000000000000000008152600401611b629190612809565b60405180910390fd5b805181602001fd5b63150b7a0260e01b7bffffffffffffffffffffffffffffffffffffffffffffffffffffffff1916817bffffffffffffffffffffffffffffffffffffffffffffffffffffffff191614611bfc57836040517f64a0ae92000000000000000000000000000000000000000000000000000000008152600401611bf39190612809565b60405180910390fd5b505b50505050565b606060405180602001604052806000815250905090565b606060006001611c2a846120e4565b01905060008167ffffffffffffffff811115611c4957611c48612bc6565b5b6040519080825280601f01601f191660200182016040528015611c7b5781602001600182028036833780820191505090505b509050600082602001820190505b600115611cde578080600190039150507f3031323334353637383961626364656600000000000000000000000000000000600a86061a8153600a8581611cd257611cd1613711565b5b04945060008503611c89575b819350505050919050565b8080611d225750600073ffffffffffffffffffffffffffffffffffffffff168273ffffffffffffffffffffffffffffffffffffffff1614155b15611e56576000611d328461158a565b9050600073ffffffffffffffffffffffffffffffffffffffff168373ffffffffffffffffffffffffffffffffffffffff1614158015611d9d57508273ffffffffffffffffffffffffffffffffffffffff168173ffffffffffffffffffffffffffffffffffffffff1614155b8015611db05750611dae81846112f4565b155b15611df257826040517fa9fbf51f000000000000000000000000000000000000000000000000000000008152600401611de99190612809565b60405180910390fd5b8115611e5457838573ffffffffffffffffffffffffffffffffffffffff168273ffffffffffffffffffffffffffffffffffffffff167f8c5be1e5ebec7d5bd14f71427d1e84f3dd0314c0f7b2291e5b200ac8c7c3b92560405160405180910390a45b505b836004600085815260200190815260200160002060006101000a81548173ffffffffffffffffffffffffffffffffffffffff021916908373ffffffffffffffffffffffffffffffffffffffff16021790555050505050565b600080611eba84611736565b9050600073ffffffffffffffffffffffffffffffffffffffff168373ffffffffffffffffffffffffffffffffffffffff1614611efc57611efb818486612237565b5b600073ffffffffffffffffffffffffffffffffffffffff168173ffffffffffffffffffffffffffffffffffffffff1614611f8d57611f3e600085600080611ce9565b6001600360008373ffffffffffffffffffffffffffffffffffffffff1673ffffffffffffffffffffffffffffffffffffffff168152602001908152602001600020600082825403925050819055505b600073ffffffffffffffffffffffffffffffffffffffff168573ffffffffffffffffffffffffffffffffffffffff1614612010576001600360008773ffffffffffffffffffffffffffffffffffffffff1673ffffffffffffffffffffffffffffffffffffffff168152602001908152602001600020600082825401925050819055505b846002600086815260200190815260200160002060006101000a81548173ffffffffffffffffffffffffffffffffffffffff021916908373ffffffffffffffffffffffffffffffffffffffff160217905550838573ffffffffffffffffffffffffffffffffffffffff168273ffffffffffffffffffffffffffffffffffffffff167fddf252ad1be2c89b69c2b068fc378daa952ba7f163c4a11628f55a4df523b3ef60405160405180910390a4809150509392505050565b6120d283836122fb565b6120df6000848484611a4d565b505050565b600080600090507a184f03e93ff9f4daa797ed6e38ed64bf6a1f0100000000000000008310612142577a184f03e93ff9f4daa797ed6e38ed64bf6a1f010000000000000000838161213857612137613711565b5b0492506040810190505b6d04ee2d6d415b85acef8100000000831061217f576d04ee2d6d415b85acef8100000000838161217557612174613711565b5b0492506020810190505b662386f26fc1000083106121ae57662386f26fc1000083816121a4576121a3613711565b5b0492506010810190505b6305f5e10083106121d7576305f5e10083816121cd576121cc613711565b5b0492506008810190505b61271083106121fc5761271083816121f2576121f1613711565b5b0492506004810190505b6064831061221f576064838161221557612214613711565b5b0492506002810190505b600a831061222e576001810190505b80915050919050565b6122428383836123f4565b6122f657600073ffffffffffffffffffffffffffffffffffffffff168373ffffffffffffffffffffffffffffffffffffffff16036122b757806040517f7e2732890000000000000000000000000000000000000000000000000000000081526004016122ae9190612ba1565b60405180910390fd5b81816040517f177e802f0000000000000000000000000000000000000000000000000000000081526004016122ed929190613740565b60405180910390fd5b505050565b600073ffffffffffffffffffffffffffffffffffffffff168273ffffffffffffffffffffffffffffffffffffffff160361236d5760006040517f64a0ae920000000000000000000000000000000000000000000000000000000081526004016123649190612809565b60405180910390fd5b600061237b83836000611669565b9050600073ffffffffffffffffffffffffffffffffffffffff168173ffffffffffffffffffffffffffffffffffffffff16146123ef5760006040517f73c6ac6e0000000000000000000000000000000000000000000000000000000081526004016123e69190612809565b60405180910390fd5b505050565b60008073ffffffffffffffffffffffffffffffffffffffff168373ffffffffffffffffffffffffffffffffffffffff16141580156124ac57508273ffffffffffffffffffffffffffffffffffffffff168473ffffffffffffffffffffffffffffffffffffffff16148061246d575061246c84846112f4565b5b806124ab57508273ffffffffffffffffffffffffffffffffffffffff1661249383611612565b73ffffffffffffffffffffffffffffffffffffffff16145b5b90509392505050565b6040518060e00160405280606081526020016060815260200160608152602001600073ffffffffffffffffffffffffffffffffffffffff16815260200160608152602001600081526020016000151581525090565b828054828255906000526020600020908101928215612552579160200282015b828111156125515782518290816125419190613490565b509160200191906001019061252a565b5b50905061255f9190612563565b5090565b5b80821115612583576000818161257a9190612587565b50600101612564565b5090565b508054612593906130c1565b6000825580601f106125a557506125c4565b601f0160209004906000526020600020908101906125c391906125c7565b5b50565b5b808211156125e05760008160009055506001016125c8565b5090565b6000604051905090565b600080fd5b600080fd5b60007fffffffff0000000000000000000000000000000000000000000000000000000082169050919050565b61262d816125f8565b811461263857600080fd5b50565b60008135905061264a81612624565b92915050565b600060208284031215612666576126656125ee565b5b60006126748482850161263b565b91505092915050565b60008115159050919050565b6126928161267d565b82525050565b60006020820190506126ad6000830184612689565b92915050565b600081519050919050565b600082825260208201905092915050565b60005b838110156126ed5780820151818401526020810190506126d2565b60008484015250505050565b6000601f19601f8301169050919050565b6000612715826126b3565b61271f81856126be565b935061272f8185602086016126cf565b612738816126f9565b840191505092915050565b6000602082019050818103600083015261275d818461270a565b905092915050565b6000819050919050565b61277881612765565b811461278357600080fd5b50565b6000813590506127958161276f565b92915050565b6000602082840312156127b1576127b06125ee565b5b60006127bf84828501612786565b91505092915050565b600073ffffffffffffffffffffffffffffffffffffffff82169050919050565b60006127f3826127c8565b9050919050565b612803816127e8565b82525050565b600060208201905061281e60008301846127fa565b92915050565b61282d816127e8565b811461283857600080fd5b50565b60008135905061284a81612824565b92915050565b60008060408385031215612867576128666125ee565b5b60006128758582860161283b565b925050602061288685828601612786565b9150509250929050565b6000806000606084860312156128a9576128a86125ee565b5b60006128b78682870161283b565b93505060206128c88682870161283b565b92505060406128d986828701612786565b9150509250925092565b6128ec81612765565b82525050565b600060c082019050818103600083015261290c818961270a565b90508181036020830152612920818861270a565b90508181036040830152612934818761270a565b905061294360608301866127fa565b61295060808301856128e3565b61295d60a0830184612689565b979650505050505050565b600082825260208201905092915050565b6000612984826126b3565b61298e8185612968565b935061299e8185602086016126cf565b6129a7816126f9565b840191505092915050565b6129bb816127e8565b82525050565b600081519050919050565b600082825260208201905092915050565b6000819050602082019050919050565b60006129f98383612979565b905092915050565b6000602082019050919050565b6000612a19826129c1565b612a2381856129cc565b935083602082028501612a35856129dd565b8060005b85811015612a715784840389528151612a5285826129ed565b9450612a5d83612a01565b925060208a01995050600181019050612a39565b50829750879550505050505092915050565b612a8c81612765565b82525050565b612a9b8161267d565b82525050565b600060e0830160008301518482036000860152612abe8282612979565b91505060208301518482036020860152612ad88282612979565b91505060408301518482036040860152612af28282612979565b9150506060830151612b0760608601826129b2565b5060808301518482036080860152612b1f8282612a0e565b91505060a0830151612b3460a0860182612a83565b5060c0830151612b4760c0860182612a92565b508091505092915050565b60006020820190508181036000830152612b6c8184612aa1565b905092915050565b600060208284031215612b8a57612b896125ee565b5b6000612b988482850161283b565b91505092915050565b6000602082019050612bb660008301846128e3565b92915050565b600080fd5b600080fd5b7f4e487b7100000000000000000000000000000000000000000000000000000000600052604160045260246000fd5b612bfe826126f9565b810181811067ffffffffffffffff82111715612c1d57612c1c612bc6565b5b80604052505050565b6000612c306125e4565b9050612c3c8282612bf5565b919050565b600067ffffffffffffffff821115612c5c57612c5b612bc6565b5b612c65826126f9565b9050602081019050919050565b82818337600083830152505050565b6000612c94612c8f84612c41565b612c26565b905082815260208101848484011115612cb057612caf612bc1565b5b612cbb848285612c72565b509392505050565b600082601f830112612cd857612cd7612bbc565b5b8135612ce8848260208601612c81565b91505092915050565b600067ffffffffffffffff821115612d0c57612d0b612bc6565b5b602082029050602081019050919050565b600080fd5b6000612d35612d3084612cf1565b612c26565b90508083825260208201905060208402830185811115612d5857612d57612d1d565b5b835b81811015612d9f57803567ffffffffffffffff811115612d7d57612d7c612bbc565b5b808601612d8a8982612cc3565b85526020850194505050602081019050612d5a565b5050509392505050565b600082601f830112612dbe57612dbd612bbc565b5b8135612dce848260208601612d22565b91505092915050565b600080600080600060a08688031215612df357612df26125ee565b5b6000612e018882890161283b565b955050602086013567ffffffffffffffff811115612e2257612e216125f3565b5b612e2e88828901612cc3565b945050604086013567ffffffffffffffff811115612e4f57612e4e6125f3565b5b612e5b88828901612cc3565b935050606086013567ffffffffffffffff811115612e7c57612e7b6125f3565b5b612e8888828901612cc3565b925050608086013567ffffffffffffffff811115612ea957612ea86125f3565b5b612eb588828901612da9565b9150509295509295909350565b612ecb8161267d565b8114612ed657600080fd5b50565b600081359050612ee881612ec2565b92915050565b60008060408385031215612f0557612f046125ee565b5b6000612f138582860161283b565b9250506020612f2485828601612ed9565b9150509250929050565b600067ffffffffffffffff821115612f4957612f48612bc6565b5b612f52826126f9565b9050602081019050919050565b6000612f72612f6d84612f2e565b612c26565b905082815260208101848484011115612f8e57612f8d612bc1565b5b612f99848285612c72565b509392505050565b600082601f830112612fb657612fb5612bbc565b5b8135612fc6848260208601612f5f565b91505092915050565b60008060008060808587031215612fe957612fe86125ee565b5b6000612ff78782880161283b565b94505060206130088782880161283b565b935050604061301987828801612786565b925050606085013567ffffffffffffffff81111561303a576130396125f3565b5b61304687828801612fa1565b91505092959194509250565b60008060408385031215613069576130686125ee565b5b60006130778582860161283b565b92505060206130888582860161283b565b9150509250929050565b7f4e487b7100000000000000000000000000000000000000000000000000000000600052602260045260246000fd5b600060028204905060018216806130d957607f821691505b6020821081036130ec576130eb613092565b5b50919050565b7f4e6f7420617574686f72697a6564000000000000000000000000000000000000600082015250565b6000613128600e836126be565b9150613133826130f2565b602082019050919050565b600060208201905081810360008301526131578161311b565b9050919050565b600060608201905061317360008301866127fa565b61318060208301856128e3565b61318d60408301846127fa565b949350505050565b7f4167656e7420646f6573206e6f74206578697374000000000000000000000000600082015250565b60006131cb6014836126be565b91506131d682613195565b602082019050919050565b600060208201905081810360008301526131fa816131be565b9050919050565b7f4167656e7420616c726561647920726567697374657265640000000000000000600082015250565b60006132376018836126be565b915061324282613201565b602082019050919050565b600060208201905081810360008301526132668161322a565b9050919050565b7f4e487b7100000000000000000000000000000000000000000000000000000000600052601160045260246000fd5b60006132a782612765565b91507fffffffffffffffffffffffffffffffffffffffffffffffffffffffffffffffff82036132d9576132d861326d565b5b600182019050919050565b60008190508160005260206000209050919050565b60006020601f8301049050919050565b600082821b905092915050565b6000600883026133467fffffffffffffffffffffffffffffffffffffffffffffffffffffffffffffffff82613309565b6133508683613309565b95508019841693508086168417925050509392505050565b6000819050919050565b600061338d61338861338384612765565b613368565b612765565b9050919050565b6000819050919050565b6133a783613372565b6133bb6133b382613394565b848454613316565b825550505050565b600090565b6133d06133c3565b6133db81848461339e565b505050565b5b818110156133ff576133f46000826133c8565b6001810190506133e1565b5050565b601f82111561344457613415816132e4565b61341e846132f9565b8101602085101561342d578190505b613441613439856132f9565b8301826133e0565b50505b505050565b600082821c905092915050565b600061346760001984600802613449565b1980831691505092915050565b60006134808383613456565b9150826002028217905092915050565b613499826126b3565b67ffffffffffffffff8111156134b2576134b1612bc6565b5b6134bc82546130c1565b6134c7828285613403565b600060209050601f8311600181146134fa57600084156134e8578287015190505b6134f28582613474565b86555061355a565b601f198416613508866132e4565b60005b828110156135305784890151825560018201915060208501945060208101905061350b565b8683101561354d5784890151613549601f891682613456565b8355505b6001600288020188555050505b505050505050565b600081905092915050565b6000613578826126b3565b6135828185613562565b93506135928185602086016126cf565b80840191505092915050565b60006135aa828561356d565b91506135b6828461356d565b91508190509392505050565b7f536f756c626f756e643a205472616e73666572206e6f7420616c6c6f77656400600082015250565b60006135f8601f836126be565b9150613603826135c2565b602082019050919050565b60006020820190508181036000830152613627816135eb565b9050919050565b600081519050919050565b600082825260208201905092915050565b60006136558261362e565b61365f8185613639565b935061366f8185602086016126cf565b613678816126f9565b840191505092915050565b600060808201905061369860008301876127fa565b6136a560208301866127fa565b6136b260408301856128e3565b81810360608301526136c4818461364a565b905095945050505050565b6000815190506136de81612624565b92915050565b6000602082840312156136fa576136f96125ee565b5b6000613708848285016136cf565b91505092915050565b7f4e487b7100000000000000000000000000000000000000000000000000000000600052601260045260246000fd5b600060408201905061375560008301856127fa565b61376260208301846128e3565b939250505056fea2646970667358221220f056f87559522f5fb8e9d560f72e28914e7f43a1df75aabf6a09e8125efe929f64736f6c63430008140033",
  "linkReferences": {},
  "deployedLinkReferences": {}
}